Archive member included because of file (symbol)

/usr/lib/gcc/avr/4.8.2/avr5/libgcc.a(_divmodhi4.o)
                              Digitizer.o (__divmodhi4)
/usr/lib/gcc/avr/4.8.2/avr5/libgcc.a(_exit.o)
                              /usr/lib/gcc/avr/4.8.2/../../../avr/lib/avr5/crtm32u4.o (exit)
/usr/lib/gcc/avr/4.8.2/avr5/libgcc.a(_tablejump.o)
                              ../../LUFA/Drivers/USB/Core/DeviceStandardReq.o (__tablejump2__)
/usr/lib/gcc/avr/4.8.2/avr5/libgcc.a(_copy_data.o)
                              MangaScreen.o (__do_copy_data)
/usr/lib/gcc/avr/4.8.2/avr5/libgcc.a(_clear_bss.o)
                              MangaScreen.o (__do_clear_bss)
/usr/lib/gcc/avr/4.8.2/avr5/libgcc.a(_udivmodhi4.o)
                              /usr/lib/gcc/avr/4.8.2/avr5/libgcc.a(_divmodhi4.o) (__udivmodhi4)
/usr/lib/gcc/avr/4.8.2/../../../avr/lib/avr5/libc.a(malloc.o)
                              Digitizer.o (malloc)
/usr/lib/gcc/avr/4.8.2/../../../avr/lib/avr5/libc.a(atoi.o)
                              MangaScreen.o (atoi)
/usr/lib/gcc/avr/4.8.2/../../../avr/lib/avr5/libc.a(memcpy_P.o)
                              ../../LUFA/Drivers/USB/Class/Device/RNDISClassDevice.o (memcpy_P)
/usr/lib/gcc/avr/4.8.2/../../../avr/lib/avr5/libc.a(memcmp.o)
                              ../../LUFA/Drivers/USB/Class/Device/HIDClassDevice.o (memcmp)
/usr/lib/gcc/avr/4.8.2/../../../avr/lib/avr5/libc.a(memcpy.o)
                              ../../LUFA/Drivers/USB/Class/Device/HIDClassDevice.o (memcpy)
/usr/lib/gcc/avr/4.8.2/../../../avr/lib/avr5/libc.a(memset.o)
                              ../../LUFA/Drivers/USB/Class/Device/HIDClassDevice.o (memset)
/usr/lib/gcc/avr/4.8.2/../../../avr/lib/avr5/libc.a(strcmp.o)
                              MangaScreen.o (strcmp)
/usr/lib/gcc/avr/4.8.2/../../../avr/lib/avr5/libc.a(strcpy.o)
                              Digitizer.o (strcpy)
/usr/lib/gcc/avr/4.8.2/../../../avr/lib/avr5/libc.a(strncmp.o)
                              MangaScreen.o (strncmp)
/usr/lib/gcc/avr/4.8.2/../../../avr/lib/avr5/libc.a(mul10.o)
                              /usr/lib/gcc/avr/4.8.2/../../../avr/lib/avr5/libc.a(atoi.o) (__mulhi_const_10)
/usr/lib/gcc/avr/4.8.2/../../../avr/lib/avr5/libc.a(iob.o)
                              MangaScreen.o (__iob)
/usr/lib/gcc/avr/4.8.2/../../../avr/lib/avr5/libc.a(printf.o)
                              MangaScreen.o (printf)
/usr/lib/gcc/avr/4.8.2/../../../avr/lib/avr5/libc.a(putchar.o)
                              MangaScreen.o (putchar)
/usr/lib/gcc/avr/4.8.2/../../../avr/lib/avr5/libc.a(puts.o)
                              MangaScreen.o (puts)
/usr/lib/gcc/avr/4.8.2/../../../avr/lib/avr5/libc.a(sprintf.o)
                              Digitizer.o (sprintf)
/usr/lib/gcc/avr/4.8.2/../../../avr/lib/avr5/libc.a(vfprintf_std.o)
                              /usr/lib/gcc/avr/4.8.2/../../../avr/lib/avr5/libc.a(printf.o) (vfprintf)
/usr/lib/gcc/avr/4.8.2/../../../avr/lib/avr5/libc.a(eerd_byte_atmega32u4.o)
                              ../../LUFA/Drivers/USB/Core/AVR8/EndpointStream_AVR8.o (__eerd_byte_m32u4)
/usr/lib/gcc/avr/4.8.2/../../../avr/lib/avr5/libc.a(eeupd_byte_atmega32u4.o)
                              ../../LUFA/Drivers/USB/Core/AVR8/EndpointStream_AVR8.o (__eeupd_byte_m32u4)
/usr/lib/gcc/avr/4.8.2/../../../avr/lib/avr5/libc.a(strnlen_P.o)
                              /usr/lib/gcc/avr/4.8.2/../../../avr/lib/avr5/libc.a(vfprintf_std.o) (strnlen_P)
/usr/lib/gcc/avr/4.8.2/../../../avr/lib/avr5/libc.a(strnlen.o)
                              /usr/lib/gcc/avr/4.8.2/../../../avr/lib/avr5/libc.a(vfprintf_std.o) (strnlen)
/usr/lib/gcc/avr/4.8.2/../../../avr/lib/avr5/libc.a(fputc.o)
                              /usr/lib/gcc/avr/4.8.2/../../../avr/lib/avr5/libc.a(putchar.o) (fputc)
/usr/lib/gcc/avr/4.8.2/../../../avr/lib/avr5/libc.a(ultoa_invert.o)
                              /usr/lib/gcc/avr/4.8.2/../../../avr/lib/avr5/libc.a(vfprintf_std.o) (__ultoa_invert)
/usr/lib/gcc/avr/4.8.2/avr5/libgcc.a(_prologue.o)
                              /usr/lib/gcc/avr/4.8.2/../../../avr/lib/avr5/libc.a(printf.o) (__prologue_saves__)
/usr/lib/gcc/avr/4.8.2/avr5/libgcc.a(_epilogue.o)
                              /usr/lib/gcc/avr/4.8.2/../../../avr/lib/avr5/libc.a(printf.o) (__epilogue_restores__)

Allocating common symbols
Common symbol       size              file

USB_IsInitialized   0x1               ../../LUFA/Drivers/USB/Core/USBTask.o
USB_DeviceState     0x1               ../../LUFA/Drivers/USB/Core/USBTask.o
__brkval            0x2               /usr/lib/gcc/avr/4.8.2/../../../avr/lib/avr5/libc.a(malloc.o)
USB_Device_ConfigurationNumber
                    0x1               ../../LUFA/Drivers/USB/Core/DeviceStandardReq.o
USB_Device_CurrentlySelfPowered
                    0x1               ../../LUFA/Drivers/USB/Core/DeviceStandardReq.o
USB_ControlRequest  0x8               ../../LUFA/Drivers/USB/Core/USBTask.o
USB_Device_RemoteWakeupEnabled
                    0x1               ../../LUFA/Drivers/USB/Core/DeviceStandardReq.o
__flp               0x2               /usr/lib/gcc/avr/4.8.2/../../../avr/lib/avr5/libc.a(malloc.o)
tsdata              0x2               Digitizer.o
__iob               0x6               /usr/lib/gcc/avr/4.8.2/../../../avr/lib/avr5/libc.a(iob.o)
tp                  0x14              Digitizer.o
cmd_cnt             0x2               MangaScreen.o
cmd                 0x64              MangaScreen.o

Discarded input sections

 .bss           0x0000000000000000        0x0 /usr/lib/gcc/avr/4.8.2/../../../avr/lib/avr5/crtm32u4.o
 .text          0x0000000000000000        0x0 MangaScreen.o
 .text          0x0000000000000000        0x0 Descriptors.o
 .bss           0x0000000000000000        0x0 Descriptors.o
 .text          0x0000000000000000        0x0 LCD.o
 .bss           0x0000000000000000        0x0 LCD.o
 .text.LcdTest  0x0000000000000000        0x2 LCD.o
 .text.LcdExtended
                0x0000000000000000       0x30 LCD.o
 .text.LcdRead  0x0000000000000000       0x2e LCD.o
 .text.to_hex   0x0000000000000000       0x36 LCD.o
 .text          0x0000000000000000        0x0 Digitizer.o
 .text.edt_ft5x06_print_parameters
                0x0000000000000000        0x2 Digitizer.o
 .text          0x0000000000000000        0x0 i2c.o
 .bss           0x0000000000000000        0x0 i2c.o
 .text.TWI_Stop
                0x0000000000000000        0x8 i2c.o
Memory Configuration

Name             Origin             Length             Attributes
text             0x0000000000000000 0x0000000000020000 xr
data             0x0000000000800060 0x000000000000ffa0 rw !x
eeprom           0x0000000000810000 0x0000000000010000 rw !x
fuse             0x0000000000820000 0x0000000000000400 rw !x
lock             0x0000000000830000 0x0000000000000400 rw !x
signature        0x0000000000840000 0x0000000000000400 rw !x
user_signatures  0x0000000000850000 0x0000000000000400 rw !x
*default*        0x0000000000000000 0xffffffffffffffff

Linker script and memory map

Address of section .data set to 0x800100
LOAD /usr/lib/gcc/avr/4.8.2/../../../avr/lib/avr5/crtm32u4.o
LOAD MangaScreen.o
LOAD Descriptors.o
LOAD LCD.o
LOAD Digitizer.o
LOAD i2c.o
LOAD ../../LUFA/Drivers/USB/Class/Common/HIDParser.o
LOAD ../../LUFA/Drivers/USB/Core/AVR8/Device_AVR8.o
LOAD ../../LUFA/Drivers/USB/Core/AVR8/EndpointStream_AVR8.o
LOAD ../../LUFA/Drivers/USB/Core/AVR8/Endpoint_AVR8.o
LOAD ../../LUFA/Drivers/USB/Core/AVR8/Host_AVR8.o
LOAD ../../LUFA/Drivers/USB/Core/AVR8/PipeStream_AVR8.o
LOAD ../../LUFA/Drivers/USB/Core/AVR8/Pipe_AVR8.o
LOAD ../../LUFA/Drivers/USB/Core/AVR8/USBController_AVR8.o
LOAD ../../LUFA/Drivers/USB/Core/AVR8/USBInterrupt_AVR8.o
LOAD ../../LUFA/Drivers/USB/Core/ConfigDescriptors.o
LOAD ../../LUFA/Drivers/USB/Core/DeviceStandardReq.o
LOAD ../../LUFA/Drivers/USB/Core/Events.o
LOAD ../../LUFA/Drivers/USB/Core/HostStandardReq.o
LOAD ../../LUFA/Drivers/USB/Core/USBTask.o
LOAD ../../LUFA/Drivers/USB/Class/Device/AudioClassDevice.o
LOAD ../../LUFA/Drivers/USB/Class/Device/CDCClassDevice.o
LOAD ../../LUFA/Drivers/USB/Class/Device/HIDClassDevice.o
LOAD ../../LUFA/Drivers/USB/Class/Device/MassStorageClassDevice.o
LOAD ../../LUFA/Drivers/USB/Class/Device/MIDIClassDevice.o
LOAD ../../LUFA/Drivers/USB/Class/Device/RNDISClassDevice.o
LOAD ../../LUFA/Drivers/USB/Class/Host/AndroidAccessoryClassHost.o
LOAD ../../LUFA/Drivers/USB/Class/Host/AudioClassHost.o
LOAD ../../LUFA/Drivers/USB/Class/Host/CDCClassHost.o
LOAD ../../LUFA/Drivers/USB/Class/Host/HIDClassHost.o
LOAD ../../LUFA/Drivers/USB/Class/Host/MassStorageClassHost.o
LOAD ../../LUFA/Drivers/USB/Class/Host/MIDIClassHost.o
LOAD ../../LUFA/Drivers/USB/Class/Host/PrinterClassHost.o
LOAD ../../LUFA/Drivers/USB/Class/Host/RNDISClassHost.o
LOAD ../../LUFA/Drivers/USB/Class/Host/StillImageClassHost.o
LOAD /usr/lib/gcc/avr/4.8.2/../../../avr/lib/avr5/libm.a
START GROUP
LOAD /usr/lib/gcc/avr/4.8.2/avr5/libgcc.a
LOAD /usr/lib/gcc/avr/4.8.2/../../../avr/lib/avr5/libm.a
LOAD /usr/lib/gcc/avr/4.8.2/../../../avr/lib/avr5/libc.a
END GROUP

.hash
 *(.hash)

.dynsym
 *(.dynsym)

.dynstr
 *(.dynstr)

.gnu.version
 *(.gnu.version)

.gnu.version_d
 *(.gnu.version_d)

.gnu.version_r
 *(.gnu.version_r)

.rel.init
 *(.rel.init)

.rela.init
 *(.rela.init)

.rel.text
 *(.rel.text)
 *(.rel.text.*)
 *(.rel.gnu.linkonce.t*)

.rela.text
 *(.rela.text)
 *(.rela.text.*)
 *(.rela.gnu.linkonce.t*)

.rel.fini
 *(.rel.fini)

.rela.fini
 *(.rela.fini)

.rel.rodata
 *(.rel.rodata)
 *(.rel.rodata.*)
 *(.rel.gnu.linkonce.r*)

.rela.rodata
 *(.rela.rodata)
 *(.rela.rodata.*)
 *(.rela.gnu.linkonce.r*)

.rel.data
 *(.rel.data)
 *(.rel.data.*)
 *(.rel.gnu.linkonce.d*)

.rela.data
 *(.rela.data)
 *(.rela.data.*)
 *(.rela.gnu.linkonce.d*)

.rel.ctors
 *(.rel.ctors)

.rela.ctors
 *(.rela.ctors)

.rel.dtors
 *(.rel.dtors)

.rela.dtors
 *(.rela.dtors)

.rel.got
 *(.rel.got)

.rela.got
 *(.rela.got)

.rel.bss
 *(.rel.bss)

.rela.bss
 *(.rela.bss)

.rel.plt
 *(.rel.plt)

.rela.plt
 *(.rela.plt)

.text           0x0000000000000000     0x2874
 *(.vectors)
 .vectors       0x0000000000000000       0xac /usr/lib/gcc/avr/4.8.2/../../../avr/lib/avr5/crtm32u4.o
                0x0000000000000000                __vectors
                0x0000000000000000                __vector_default
 *(.vectors)
 *(.progmem.gcc*)
 .progmem.gcc_sw_table.USB_Device_ProcessControlRequest
                0x00000000000000ac       0x14 ../../LUFA/Drivers/USB/Core/DeviceStandardReq.o
 *(.progmem*)
 .progmem.data  0x00000000000000c0      0x10f Descriptors.o
                0x00000000000000c0                ProductString
                0x00000000000000e6                ManufacturerString
                0x000000000000010c                LanguageString
                0x0000000000000110                ConfigurationDescriptor
                0x000000000000016f                DeviceDescriptor
                0x0000000000000181                DigitizerReport
                0x00000000000001d0                . = ALIGN (0x2)
 *fill*         0x00000000000001cf        0x1 
                0x00000000000001d0                __trampolines_start = .
 *(.trampolines)
 .trampolines   0x00000000000001d0        0x0 linker stubs
 *(.trampolines*)
                0x00000000000001d0                __trampolines_end = .
 *(.jumptables)
 *(.jumptables*)
 *(.lowtext)
 *(.lowtext*)
                0x00000000000001d0                __ctors_start = .
 *(.ctors)
                0x00000000000001d0                __ctors_end = .
                0x00000000000001d0                __dtors_start = .
 *(.dtors)
                0x00000000000001d0                __dtors_end = .
 SORT(*)(.ctors)
 SORT(*)(.dtors)
 *(.init0)
 .init0         0x00000000000001d0        0x0 /usr/lib/gcc/avr/4.8.2/../../../avr/lib/avr5/crtm32u4.o
                0x00000000000001d0                __init
 *(.init0)
 *(.init1)
 *(.init1)
 *(.init2)
 .init2         0x00000000000001d0        0xc /usr/lib/gcc/avr/4.8.2/../../../avr/lib/avr5/crtm32u4.o
 *(.init2)
 *(.init3)
 *(.init3)
 *(.init4)
 .init4         0x00000000000001dc       0x16 /usr/lib/gcc/avr/4.8.2/avr5/libgcc.a(_copy_data.o)
                0x00000000000001dc                __do_copy_data
 .init4         0x00000000000001f2       0x10 /usr/lib/gcc/avr/4.8.2/avr5/libgcc.a(_clear_bss.o)
                0x00000000000001f2                __do_clear_bss
 *(.init4)
 *(.init5)
 *(.init5)
 *(.init6)
 *(.init6)
 *(.init7)
 *(.init7)
 *(.init8)
 *(.init8)
 *(.init9)
 .init9         0x0000000000000202        0x6 /usr/lib/gcc/avr/4.8.2/../../../avr/lib/avr5/crtm32u4.o
 *(.init9)
 *(.text)
 .text          0x0000000000000208        0x2 /usr/lib/gcc/avr/4.8.2/../../../avr/lib/avr5/crtm32u4.o
                0x0000000000000208                __vector_38
                0x0000000000000208                __vector_22
                0x0000000000000208                __vector_28
                0x0000000000000208                __vector_1
                0x0000000000000208                __vector_32
                0x0000000000000208                __vector_34
                0x0000000000000208                __vector_24
                0x0000000000000208                __vector_12
                0x0000000000000208                __bad_interrupt
                0x0000000000000208                __vector_6
                0x0000000000000208                __vector_31
                0x0000000000000208                __vector_35
                0x0000000000000208                __vector_39
                0x0000000000000208                __vector_23
                0x0000000000000208                __vector_30
                0x0000000000000208                __vector_25
                0x0000000000000208                __vector_13
                0x0000000000000208                __vector_17
                0x0000000000000208                __vector_19
                0x0000000000000208                __vector_7
                0x0000000000000208                __vector_41
                0x0000000000000208                __vector_27
                0x0000000000000208                __vector_5
                0x0000000000000208                __vector_33
                0x0000000000000208                __vector_37
                0x0000000000000208                __vector_4
                0x0000000000000208                __vector_9
                0x0000000000000208                __vector_2
                0x0000000000000208                __vector_21
                0x0000000000000208                __vector_15
                0x0000000000000208                __vector_36
                0x0000000000000208                __vector_29
                0x0000000000000208                __vector_40
                0x0000000000000208                __vector_8
                0x0000000000000208                __vector_26
                0x0000000000000208                __vector_14
                0x0000000000000208                __vector_16
                0x0000000000000208                __vector_18
                0x0000000000000208                __vector_20
                0x0000000000000208                __vector_42
                0x000000000000020a                . = ALIGN (0x2)
 *(.text.*)
 .text.LEDs_Init
                0x000000000000020a        0x6 MangaScreen.o
 .text.LEDs_SetAllLEDs
                0x0000000000000210        0xa MangaScreen.o
 .text.putchar_printf
                0x000000000000021a       0x24 MangaScreen.o
                0x000000000000021a                putchar_printf
 .text.SetupHardware
                0x000000000000023e       0xb6 MangaScreen.o
                0x000000000000023e                SetupHardware
 .text.execute_command
                0x00000000000002f4       0xb4 MangaScreen.o
                0x00000000000002f4                execute_command
 .text.HandleSerial
                0x00000000000003a8      0x126 MangaScreen.o
                0x00000000000003a8                HandleSerial
 .text.startup.main
                0x00000000000004ce       0x5a MangaScreen.o
                0x00000000000004ce                main
 .text.EVENT_USB_Device_Connect
                0x0000000000000528        0x4 MangaScreen.o
                0x0000000000000528                EVENT_USB_Device_Connect
 .text.EVENT_USB_Device_Disconnect
                0x000000000000052c        0x4 MangaScreen.o
                0x000000000000052c                EVENT_USB_Device_Disconnect
 .text.EVENT_USB_Device_ConfigurationChanged
                0x0000000000000530       0x30 MangaScreen.o
                0x0000000000000530                EVENT_USB_Device_ConfigurationChanged
 .text.EVENT_USB_Device_ControlRequest
                0x0000000000000560       0x10 MangaScreen.o
                0x0000000000000560                EVENT_USB_Device_ControlRequest
 .text.EVENT_USB_Device_StartOfFrame
                0x0000000000000570       0x18 MangaScreen.o
                0x0000000000000570                EVENT_USB_Device_StartOfFrame
 .text.CALLBACK_HID_Device_CreateHIDReport
                0x0000000000000588       0x2c MangaScreen.o
                0x0000000000000588                CALLBACK_HID_Device_CreateHIDReport
 .text.CALLBACK_HID_Device_ProcessHIDReport
                0x00000000000005b4        0x2 MangaScreen.o
                0x00000000000005b4                CALLBACK_HID_Device_ProcessHIDReport
 .text.CALLBACK_USB_GetDescriptor
                0x00000000000005b6       0x86 Descriptors.o
                0x00000000000005b6                CALLBACK_USB_GetDescriptor
 .text.LCD_CS_Low
                0x000000000000063c        0x4 LCD.o
                0x000000000000063c                LCD_CS_Low
 .text.LCD_CS_High
                0x0000000000000640        0x4 LCD.o
                0x0000000000000640                LCD_CS_High
 .text.LcdWrite
                0x0000000000000644       0x6e LCD.o
                0x0000000000000644                LcdWrite
 .text.LCD_Init
                0x00000000000006b2       0x92 LCD.o
                0x00000000000006b2                LCD_Init
 .text.LCD_UnInit
                0x0000000000000744       0x22 LCD.o
                0x0000000000000744                LCD_UnInit
 .text.BL_on    0x0000000000000766       0x20 LCD.o
                0x0000000000000766                BL_on
 .text.setup_irq
                0x0000000000000786       0x14 Digitizer.o
                0x0000000000000786                setup_irq
 .text.digitizer_get_report
                0x000000000000079a       0xc4 Digitizer.o
                0x000000000000079a                digitizer_get_report
 .text.edt_ft5x06_ts_readwrite
                0x000000000000085e       0xa6 Digitizer.o
                0x000000000000085e                edt_ft5x06_ts_readwrite
 .text.edt_ft5x06_get_data
                0x0000000000000904      0x156 Digitizer.o
                0x0000000000000904                edt_ft5x06_get_data
 .text.__vector_3
                0x0000000000000a5a       0x46 Digitizer.o
                0x0000000000000a5a                __vector_3
 .text.edt_ft5x06_register_write
                0x0000000000000aa0       0x2c Digitizer.o
                0x0000000000000aa0                edt_ft5x06_register_write
 .text.edt_ft5x06_ts_set_parameters
                0x0000000000000acc       0x68 Digitizer.o
                0x0000000000000acc                edt_ft5x06_ts_set_parameters
 .text.edt_ft5x06_register_read
                0x0000000000000b34       0x34 Digitizer.o
                0x0000000000000b34                edt_ft5x06_register_read
 .text.edt_ft5x06_ts_identify
                0x0000000000000b68       0x8a Digitizer.o
                0x0000000000000b68                edt_ft5x06_ts_identify
 .text.edt_ft5x06_ts_get_parameters
                0x0000000000000bf2       0x3c Digitizer.o
                0x0000000000000bf2                edt_ft5x06_ts_get_parameters
 .text.digitizer_init
                0x0000000000000c2e       0x9a Digitizer.o
                0x0000000000000c2e                digitizer_init
 .text.TWI_Init
                0x0000000000000cc8       0x12 i2c.o
                0x0000000000000cc8                TWI_Init
 .text.TWI_Start
                0x0000000000000cda       0x10 i2c.o
                0x0000000000000cda                TWI_Start
 .text.TWI_Write
                0x0000000000000cea       0x14 i2c.o
                0x0000000000000cea                TWI_Write
 .text.i2c_send2
                0x0000000000000cfe       0x88 i2c.o
                0x0000000000000cfe                i2c_send2
 .text.TWI_Read
                0x0000000000000d86       0x1c i2c.o
                0x0000000000000d86                TWI_Read
 .text.i2c_recv2
                0x0000000000000da2       0x90 i2c.o
                0x0000000000000da2                i2c_recv2
 .text.i2c_transfer
                0x0000000000000e32       0x50 i2c.o
                0x0000000000000e32                i2c_transfer
 .text.Endpoint_Write_Stream_LE
                0x0000000000000e82       0x8e ../../LUFA/Drivers/USB/Core/AVR8/EndpointStream_AVR8.o
                0x0000000000000e82                Endpoint_Write_Stream_LE
 .text.Endpoint_Write_Control_Stream_LE
                0x0000000000000f10       0xb6 ../../LUFA/Drivers/USB/Core/AVR8/EndpointStream_AVR8.o
                0x0000000000000f10                Endpoint_Write_Control_Stream_LE
 .text.Endpoint_Read_Control_Stream_LE
                0x0000000000000fc6       0x80 ../../LUFA/Drivers/USB/Core/AVR8/EndpointStream_AVR8.o
                0x0000000000000fc6                Endpoint_Read_Control_Stream_LE
 .text.Endpoint_Write_Control_PStream_LE
                0x0000000000001046       0xbc ../../LUFA/Drivers/USB/Core/AVR8/EndpointStream_AVR8.o
                0x0000000000001046                Endpoint_Write_Control_PStream_LE
 .text.Endpoint_ConfigureEndpoint_Prv
                0x0000000000001102       0x6a ../../LUFA/Drivers/USB/Core/AVR8/Endpoint_AVR8.o
                0x0000000000001102                Endpoint_ConfigureEndpoint_Prv
 .text.Endpoint_ConfigureEndpointTable
                0x000000000000116c       0x7a ../../LUFA/Drivers/USB/Core/AVR8/Endpoint_AVR8.o
                0x000000000000116c                Endpoint_ConfigureEndpointTable
 .text.Endpoint_ClearStatusStage
                0x00000000000011e6       0x42 ../../LUFA/Drivers/USB/Core/AVR8/Endpoint_AVR8.o
                0x00000000000011e6                Endpoint_ClearStatusStage
 .text.Endpoint_WaitUntilReady
                0x0000000000001228       0x60 ../../LUFA/Drivers/USB/Core/AVR8/Endpoint_AVR8.o
                0x0000000000001228                Endpoint_WaitUntilReady
 .text.USB_ResetInterface
                0x0000000000001288       0x80 ../../LUFA/Drivers/USB/Core/AVR8/USBController_AVR8.o
                0x0000000000001288                USB_ResetInterface
 .text.USB_Init
                0x0000000000001308       0x20 ../../LUFA/Drivers/USB/Core/AVR8/USBController_AVR8.o
                0x0000000000001308                USB_Init
 .text.USB_INT_DisableAllInterrupts
                0x0000000000001328       0x10 ../../LUFA/Drivers/USB/Core/AVR8/USBInterrupt_AVR8.o
                0x0000000000001328                USB_INT_DisableAllInterrupts
 .text.USB_INT_ClearAllInterrupts
                0x0000000000001338        0xa ../../LUFA/Drivers/USB/Core/AVR8/USBInterrupt_AVR8.o
                0x0000000000001338                USB_INT_ClearAllInterrupts
 .text.__vector_10
                0x0000000000001342      0x192 ../../LUFA/Drivers/USB/Core/AVR8/USBInterrupt_AVR8.o
                0x0000000000001342                __vector_10
 .text.__vector_11
                0x00000000000014d4       0x76 ../../LUFA/Drivers/USB/Core/AVR8/USBInterrupt_AVR8.o
                0x00000000000014d4                __vector_11
 .text.USB_Device_ProcessControlRequest
                0x000000000000154a      0x290 ../../LUFA/Drivers/USB/Core/DeviceStandardReq.o
                0x000000000000154a                USB_Device_ProcessControlRequest
 .text.USB_Event_Stub
                0x00000000000017da        0x2 ../../LUFA/Drivers/USB/Core/Events.o
                0x00000000000017da                EVENT_USB_Device_WakeUp
                0x00000000000017da                USB_Event_Stub
                0x00000000000017da                EVENT_USB_Device_Suspend
                0x00000000000017da                EVENT_USB_Device_Reset
 .text.USB_USBTask
                0x00000000000017dc       0x38 ../../LUFA/Drivers/USB/Core/USBTask.o
                0x00000000000017dc                USB_USBTask
 .text.CDC_Device_ConfigureEndpoints
                0x0000000000001814       0x4a ../../LUFA/Drivers/USB/Class/Device/CDCClassDevice.o
                0x0000000000001814                CDC_Device_ConfigureEndpoints
 .text.CDC_Device_SendByte
                0x000000000000185e       0x4e ../../LUFA/Drivers/USB/Class/Device/CDCClassDevice.o
                0x000000000000185e                CDC_Device_SendByte
 .text.CDC_Device_Flush
                0x00000000000018ac       0x5c ../../LUFA/Drivers/USB/Class/Device/CDCClassDevice.o
                0x00000000000018ac                CDC_Device_Flush
 .text.CDC_Device_USBTask
                0x0000000000001908       0x2c ../../LUFA/Drivers/USB/Class/Device/CDCClassDevice.o
                0x0000000000001908                CDC_Device_USBTask
 .text.CDC_Device_ReceiveByte
                0x0000000000001934       0x6a ../../LUFA/Drivers/USB/Class/Device/CDCClassDevice.o
                0x0000000000001934                CDC_Device_ReceiveByte
 .text.CDC_Device_Event_Stub
                0x000000000000199e        0x2 ../../LUFA/Drivers/USB/Class/Device/CDCClassDevice.o
                0x000000000000199e                EVENT_CDC_Device_LineEncodingChanged
                0x000000000000199e                EVENT_CDC_Device_ControLineStateChanged
                0x000000000000199e                EVENT_CDC_Device_BreakSent
                0x000000000000199e                CDC_Device_Event_Stub
 .text.CDC_Device_ProcessControlRequest
                0x00000000000019a0      0x160 ../../LUFA/Drivers/USB/Class/Device/CDCClassDevice.o
                0x00000000000019a0                CDC_Device_ProcessControlRequest
 .text.HID_Device_ProcessControlRequest
                0x0000000000001b00      0x260 ../../LUFA/Drivers/USB/Class/Device/HIDClassDevice.o
                0x0000000000001b00                HID_Device_ProcessControlRequest
 .text.HID_Device_ConfigureEndpoints
                0x0000000000001d60       0x26 ../../LUFA/Drivers/USB/Class/Device/HIDClassDevice.o
                0x0000000000001d60                HID_Device_ConfigureEndpoints
 .text.HID_Device_USBTask
                0x0000000000001d86      0x17e ../../LUFA/Drivers/USB/Class/Device/HIDClassDevice.o
                0x0000000000001d86                HID_Device_USBTask
 .text.libgcc.div
                0x0000000000001f04       0x26 /usr/lib/gcc/avr/4.8.2/avr5/libgcc.a(_divmodhi4.o)
                0x0000000000001f04                __divmodhi4
                0x0000000000001f04                _div
 .text.libgcc   0x0000000000001f2a        0xc /usr/lib/gcc/avr/4.8.2/avr5/libgcc.a(_tablejump.o)
                0x0000000000001f2a                __tablejump2__
                0x0000000000001f2e                __tablejump__
 .text.libgcc.div
                0x0000000000001f36       0x28 /usr/lib/gcc/avr/4.8.2/avr5/libgcc.a(_udivmodhi4.o)
                0x0000000000001f36                __udivmodhi4
 .text.avr-libc
                0x0000000000001f5e      0x24e /usr/lib/gcc/avr/4.8.2/../../../avr/lib/avr5/libc.a(malloc.o)
                0x0000000000001f5e                malloc
                0x000000000000208e                free
 .text.avr-libc
                0x00000000000021ac       0x3a /usr/lib/gcc/avr/4.8.2/../../../avr/lib/avr5/libc.a(atoi.o)
                0x00000000000021ac                atoi
 .text.avr-libc
                0x00000000000021e6       0x1a /usr/lib/gcc/avr/4.8.2/../../../avr/lib/avr5/libc.a(memcmp.o)
                0x00000000000021e6                memcmp
 .text.avr-libc
                0x0000000000002200       0x12 /usr/lib/gcc/avr/4.8.2/../../../avr/lib/avr5/libc.a(memcpy.o)
                0x0000000000002200                memcpy
 .text.avr-libc
                0x0000000000002212        0xe /usr/lib/gcc/avr/4.8.2/../../../avr/lib/avr5/libc.a(memset.o)
                0x0000000000002212                memset
 .text.avr-libc
                0x0000000000002220       0x12 /usr/lib/gcc/avr/4.8.2/../../../avr/lib/avr5/libc.a(strcmp.o)
                0x0000000000002220                strcmp
 .text.avr-libc
                0x0000000000002232        0xe /usr/lib/gcc/avr/4.8.2/../../../avr/lib/avr5/libc.a(strcpy.o)
                0x0000000000002232                strcpy
 .text.avr-libc
                0x0000000000002240       0x1c /usr/lib/gcc/avr/4.8.2/../../../avr/lib/avr5/libc.a(strncmp.o)
                0x0000000000002240                strncmp
 .text.avr-libc
                0x000000000000225c       0x10 /usr/lib/gcc/avr/4.8.2/../../../avr/lib/avr5/libc.a(mul10.o)
                0x000000000000225c                __mulhi_const_10
 .text.avr-libc
                0x000000000000226c       0x22 /usr/lib/gcc/avr/4.8.2/../../../avr/lib/avr5/libc.a(printf.o)
                0x000000000000226c                printf
 .text.avr-libc
                0x000000000000228e        0xa /usr/lib/gcc/avr/4.8.2/../../../avr/lib/avr5/libc.a(putchar.o)
                0x000000000000228e                putchar
 .text.avr-libc
                0x0000000000002298       0x5a /usr/lib/gcc/avr/4.8.2/../../../avr/lib/avr5/libc.a(puts.o)
                0x0000000000002298                puts
 .text.avr-libc
                0x00000000000022f2       0x3e /usr/lib/gcc/avr/4.8.2/../../../avr/lib/avr5/libc.a(sprintf.o)
                0x00000000000022f2                sprintf
 .text.avr-libc
                0x0000000000002330      0x386 /usr/lib/gcc/avr/4.8.2/../../../avr/lib/avr5/libc.a(vfprintf_std.o)
                0x0000000000002330                vfprintf
 .text.avr-libc
                0x00000000000026b6       0x16 /usr/lib/gcc/avr/4.8.2/../../../avr/lib/avr5/libc.a(strnlen_P.o)
                0x00000000000026b6                strnlen_P
 .text.avr-libc
                0x00000000000026cc       0x16 /usr/lib/gcc/avr/4.8.2/../../../avr/lib/avr5/libc.a(strnlen.o)
                0x00000000000026cc                strnlen
 .text.avr-libc
                0x00000000000026e2       0x64 /usr/lib/gcc/avr/4.8.2/../../../avr/lib/avr5/libc.a(fputc.o)
                0x00000000000026e2                fputc
 .text.avr-libc
                0x0000000000002746       0xbc /usr/lib/gcc/avr/4.8.2/../../../avr/lib/avr5/libc.a(ultoa_invert.o)
                0x0000000000002746                __ultoa_invert
 .text.libgcc.prologue
                0x0000000000002802       0x38 /usr/lib/gcc/avr/4.8.2/avr5/libgcc.a(_prologue.o)
                0x0000000000002802                __prologue_saves__
 .text.libgcc.prologue
                0x000000000000283a       0x36 /usr/lib/gcc/avr/4.8.2/avr5/libgcc.a(_epilogue.o)
                0x000000000000283a                __epilogue_restores__
                0x0000000000002870                . = ALIGN (0x2)
 *(.fini9)
 .fini9         0x0000000000002870        0x0 /usr/lib/gcc/avr/4.8.2/avr5/libgcc.a(_exit.o)
                0x0000000000002870                exit
                0x0000000000002870                _exit
 *(.fini9)
 *(.fini8)
 *(.fini8)
 *(.fini7)
 *(.fini7)
 *(.fini6)
 *(.fini6)
 *(.fini5)
 *(.fini5)
 *(.fini4)
 *(.fini4)
 *(.fini3)
 *(.fini3)
 *(.fini2)
 *(.fini2)
 *(.fini1)
 *(.fini1)
 *(.fini0)
 .fini0         0x0000000000002870        0x4 /usr/lib/gcc/avr/4.8.2/avr5/libgcc.a(_exit.o)
 *(.fini0)
                0x0000000000002874                _etext = .

.data           0x0000000000800100      0x102 load address 0x0000000000002874
                0x0000000000800100                PROVIDE (__data_start, .)
 *(.data)
 .data          0x0000000000800100        0x0 /usr/lib/gcc/avr/4.8.2/../../../avr/lib/avr5/crtm32u4.o
 .data          0x0000000000800100       0x39 MangaScreen.o
                0x000000000080010e                Digitizer_HID_Interface
                0x000000000080011e                VirtualSerial_CDC_Interface
 .data          0x0000000000800139        0x0 Descriptors.o
 .data          0x0000000000800139        0x5 LCD.o
 .data          0x000000000080013e        0x0 Digitizer.o
 .data          0x000000000080013e        0x0 i2c.o
 .data          0x000000000080013e        0x0 ../../LUFA/Drivers/USB/Class/Common/HIDParser.o
 .data          0x000000000080013e        0x0 ../../LUFA/Drivers/USB/Core/AVR8/Device_AVR8.o
 .data          0x000000000080013e        0x0 ../../LUFA/Drivers/USB/Core/AVR8/EndpointStream_AVR8.o
 .data          0x000000000080013e        0x0 ../../LUFA/Drivers/USB/Core/AVR8/Endpoint_AVR8.o
 .data          0x000000000080013e        0x0 ../../LUFA/Drivers/USB/Core/AVR8/Host_AVR8.o
 .data          0x000000000080013e        0x0 ../../LUFA/Drivers/USB/Core/AVR8/PipeStream_AVR8.o
 .data          0x000000000080013e        0x0 ../../LUFA/Drivers/USB/Core/AVR8/Pipe_AVR8.o
 .data          0x000000000080013e        0x0 ../../LUFA/Drivers/USB/Core/AVR8/USBController_AVR8.o
 .data          0x000000000080013e        0x0 ../../LUFA/Drivers/USB/Core/AVR8/USBInterrupt_AVR8.o
 .data          0x000000000080013e        0x0 ../../LUFA/Drivers/USB/Core/ConfigDescriptors.o
 .data          0x000000000080013e        0x0 ../../LUFA/Drivers/USB/Core/DeviceStandardReq.o
 .data          0x000000000080013e        0x0 ../../LUFA/Drivers/USB/Core/Events.o
 .data          0x000000000080013e        0x0 ../../LUFA/Drivers/USB/Core/HostStandardReq.o
 .data          0x000000000080013e        0x0 ../../LUFA/Drivers/USB/Core/USBTask.o
 .data          0x000000000080013e        0x0 ../../LUFA/Drivers/USB/Class/Device/AudioClassDevice.o
 .data          0x000000000080013e        0x0 ../../LUFA/Drivers/USB/Class/Device/CDCClassDevice.o
 .data          0x000000000080013e        0x0 ../../LUFA/Drivers/USB/Class/Device/HIDClassDevice.o
 .data          0x000000000080013e        0x0 ../../LUFA/Drivers/USB/Class/Device/MassStorageClassDevice.o
 .data          0x000000000080013e        0x0 ../../LUFA/Drivers/USB/Class/Device/MIDIClassDevice.o
 .data          0x000000000080013e        0x0 ../../LUFA/Drivers/USB/Class/Device/RNDISClassDevice.o
 .data          0x000000000080013e        0x0 ../../LUFA/Drivers/USB/Class/Host/AndroidAccessoryClassHost.o
 .data          0x000000000080013e        0x0 ../../LUFA/Drivers/USB/Class/Host/AudioClassHost.o
 .data          0x000000000080013e        0x0 ../../LUFA/Drivers/USB/Class/Host/CDCClassHost.o
 .data          0x000000000080013e        0x0 ../../LUFA/Drivers/USB/Class/Host/HIDClassHost.o
 .data          0x000000000080013e        0x0 ../../LUFA/Drivers/USB/Class/Host/MassStorageClassHost.o
 .data          0x000000000080013e        0x0 ../../LUFA/Drivers/USB/Class/Host/MIDIClassHost.o
 .data          0x000000000080013e        0x0 ../../LUFA/Drivers/USB/Class/Host/PrinterClassHost.o
 .data          0x000000000080013e        0x0 ../../LUFA/Drivers/USB/Class/Host/RNDISClassHost.o
 .data          0x000000000080013e        0x0 ../../LUFA/Drivers/USB/Class/Host/StillImageClassHost.o
 .data          0x000000000080013e        0x0 /usr/lib/gcc/avr/4.8.2/avr5/libgcc.a(_divmodhi4.o)
 .data          0x000000000080013e        0x0 /usr/lib/gcc/avr/4.8.2/avr5/libgcc.a(_exit.o)
 .data          0x000000000080013e        0x0 /usr/lib/gcc/avr/4.8.2/avr5/libgcc.a(_tablejump.o)
 .data          0x000000000080013e        0x0 /usr/lib/gcc/avr/4.8.2/avr5/libgcc.a(_copy_data.o)
 .data          0x000000000080013e        0x0 /usr/lib/gcc/avr/4.8.2/avr5/libgcc.a(_clear_bss.o)
 .data          0x000000000080013e        0x0 /usr/lib/gcc/avr/4.8.2/avr5/libgcc.a(_udivmodhi4.o)
 .data          0x000000000080013e        0x6 /usr/lib/gcc/avr/4.8.2/../../../avr/lib/avr5/libc.a(malloc.o)
                0x000000000080013e                __malloc_heap_end
                0x0000000000800140                __malloc_heap_start
                0x0000000000800142                __malloc_margin
 .data          0x0000000000800144        0x0 /usr/lib/gcc/avr/4.8.2/../../../avr/lib/avr5/libc.a(atoi.o)
 .data          0x0000000000800144        0x0 /usr/lib/gcc/avr/4.8.2/../../../avr/lib/avr5/libc.a(memcpy_P.o)
 .data          0x0000000000800144        0x0 /usr/lib/gcc/avr/4.8.2/../../../avr/lib/avr5/libc.a(memcmp.o)
 .data          0x0000000000800144        0x0 /usr/lib/gcc/avr/4.8.2/../../../avr/lib/avr5/libc.a(memcpy.o)
 .data          0x0000000000800144        0x0 /usr/lib/gcc/avr/4.8.2/../../../avr/lib/avr5/libc.a(memset.o)
 .data          0x0000000000800144        0x0 /usr/lib/gcc/avr/4.8.2/../../../avr/lib/avr5/libc.a(strcmp.o)
 .data          0x0000000000800144        0x0 /usr/lib/gcc/avr/4.8.2/../../../avr/lib/avr5/libc.a(strcpy.o)
 .data          0x0000000000800144        0x0 /usr/lib/gcc/avr/4.8.2/../../../avr/lib/avr5/libc.a(strncmp.o)
 .data          0x0000000000800144        0x0 /usr/lib/gcc/avr/4.8.2/../../../avr/lib/avr5/libc.a(mul10.o)
 .data          0x0000000000800144        0x0 /usr/lib/gcc/avr/4.8.2/../../../avr/lib/avr5/libc.a(iob.o)
 .data          0x0000000000800144        0x0 /usr/lib/gcc/avr/4.8.2/../../../avr/lib/avr5/libc.a(printf.o)
 .data          0x0000000000800144        0x0 /usr/lib/gcc/avr/4.8.2/../../../avr/lib/avr5/libc.a(putchar.o)
 .data          0x0000000000800144        0x0 /usr/lib/gcc/avr/4.8.2/../../../avr/lib/avr5/libc.a(puts.o)
 .data          0x0000000000800144        0x0 /usr/lib/gcc/avr/4.8.2/../../../avr/lib/avr5/libc.a(sprintf.o)
 .data          0x0000000000800144        0x0 /usr/lib/gcc/avr/4.8.2/../../../avr/lib/avr5/libc.a(vfprintf_std.o)
 .data          0x0000000000800144        0x0 /usr/lib/gcc/avr/4.8.2/../../../avr/lib/avr5/libc.a(eerd_byte_atmega32u4.o)
 .data          0x0000000000800144        0x0 /usr/lib/gcc/avr/4.8.2/../../../avr/lib/avr5/libc.a(eeupd_byte_atmega32u4.o)
 .data          0x0000000000800144        0x0 /usr/lib/gcc/avr/4.8.2/../../../avr/lib/avr5/libc.a(strnlen_P.o)
 .data          0x0000000000800144        0x0 /usr/lib/gcc/avr/4.8.2/../../../avr/lib/avr5/libc.a(strnlen.o)
 .data          0x0000000000800144        0x0 /usr/lib/gcc/avr/4.8.2/../../../avr/lib/avr5/libc.a(fputc.o)
 .data          0x0000000000800144        0x0 /usr/lib/gcc/avr/4.8.2/../../../avr/lib/avr5/libc.a(ultoa_invert.o)
 .data          0x0000000000800144        0x0 /usr/lib/gcc/avr/4.8.2/avr5/libgcc.a(_prologue.o)
 .data          0x0000000000800144        0x0 /usr/lib/gcc/avr/4.8.2/avr5/libgcc.a(_epilogue.o)
 *(.data*)
 *(.rodata)
 *(.rodata*)
 .rodata.str1.1
                0x0000000000800144       0xb1 MangaScreen.o
 .rodata.str1.1
                0x00000000008001f5        0xd Digitizer.o
 *(.gnu.linkonce.d*)
                0x0000000000800202                . = ALIGN (0x2)
                0x0000000000800202                _edata = .
                0x0000000000800202                PROVIDE (__data_end, .)

.bss            0x0000000000800202      0x12c
                0x0000000000800202                PROVIDE (__bss_start, .)
 *(.bss)
 .bss           0x0000000000800202       0x95 MangaScreen.o
                0x0000000000800202                enable_reports
 .bss           0x0000000000800297        0x4 Digitizer.o
 *(.bss*)
 *(COMMON)
 COMMON         0x000000000080029b       0x66 MangaScreen.o
                0x000000000080029b                cmd_cnt
                0x000000000080029d                cmd
 COMMON         0x0000000000800301       0x16 Digitizer.o
                0x0000000000800301                tsdata
                0x0000000000800303                tp
 COMMON         0x0000000000800317        0x3 ../../LUFA/Drivers/USB/Core/DeviceStandardReq.o
                0x0000000000800317                USB_Device_ConfigurationNumber
                0x0000000000800318                USB_Device_CurrentlySelfPowered
                0x0000000000800319                USB_Device_RemoteWakeupEnabled
 COMMON         0x000000000080031a        0xa ../../LUFA/Drivers/USB/Core/USBTask.o
                0x000000000080031a                USB_IsInitialized
                0x000000000080031b                USB_DeviceState
                0x000000000080031c                USB_ControlRequest
 COMMON         0x0000000000800324        0x4 /usr/lib/gcc/avr/4.8.2/../../../avr/lib/avr5/libc.a(malloc.o)
                0x0000000000800324                __brkval
                0x0000000000800326                __flp
 COMMON         0x0000000000800328        0x6 /usr/lib/gcc/avr/4.8.2/../../../avr/lib/avr5/libc.a(iob.o)
                0x0000000000800328                __iob
                0x000000000080032e                PROVIDE (__bss_end, .)
                0x0000000000002874                __data_load_start = LOADADDR (.data)
                0x0000000000002976                __data_load_end = (__data_load_start + SIZEOF (.data))

.noinit         0x000000000080032e        0x0
                0x000000000080032e                PROVIDE (__noinit_start, .)
 *(.noinit*)
                0x000000000080032e                PROVIDE (__noinit_end, .)
                0x000000000080032e                _end = .
                0x000000000080032e                PROVIDE (__heap_start, .)

.eeprom         0x0000000000810000        0x0
 *(.eeprom*)
                0x0000000000810000                __eeprom_end = .

.fuse
 *(.fuse)
 *(.lfuse)
 *(.hfuse)
 *(.efuse)

.lock
 *(.lock*)

.signature
 *(.signature*)

.user_signatures
 *(.user_signatures*)

.stab           0x0000000000000000     0x3b70
 *(.stab)
 .stab          0x0000000000000000      0x6cc /usr/lib/gcc/avr/4.8.2/../../../avr/lib/avr5/crtm32u4.o
 .stab          0x00000000000006cc      0x8dc /usr/lib/gcc/avr/4.8.2/../../../avr/lib/avr5/libc.a(malloc.o)
                                        0x8e8 (size before relaxing)
 .stab          0x0000000000000fa8      0x174 /usr/lib/gcc/avr/4.8.2/../../../avr/lib/avr5/libc.a(atoi.o)
                                        0x180 (size before relaxing)
 .stab          0x000000000000111c       0x84 /usr/lib/gcc/avr/4.8.2/../../../avr/lib/avr5/libc.a(memcpy_P.o)
                                         0x90 (size before relaxing)
 .stab          0x00000000000011a0       0xb4 /usr/lib/gcc/avr/4.8.2/../../../avr/lib/avr5/libc.a(memcmp.o)
                                         0xc0 (size before relaxing)
 .stab          0x0000000000001254       0x84 /usr/lib/gcc/avr/4.8.2/../../../avr/lib/avr5/libc.a(memcpy.o)
                                         0x90 (size before relaxing)
 .stab          0x00000000000012d8       0x6c /usr/lib/gcc/avr/4.8.2/../../../avr/lib/avr5/libc.a(memset.o)
                                         0x78 (size before relaxing)
 .stab          0x0000000000001344       0x84 /usr/lib/gcc/avr/4.8.2/../../../avr/lib/avr5/libc.a(strcmp.o)
                                         0x90 (size before relaxing)
 .stab          0x00000000000013c8       0x6c /usr/lib/gcc/avr/4.8.2/../../../avr/lib/avr5/libc.a(strcpy.o)
                                         0x78 (size before relaxing)
 .stab          0x0000000000001434       0xc0 /usr/lib/gcc/avr/4.8.2/../../../avr/lib/avr5/libc.a(strncmp.o)
                                         0xcc (size before relaxing)
 .stab          0x00000000000014f4       0x78 /usr/lib/gcc/avr/4.8.2/../../../avr/lib/avr5/libc.a(mul10.o)
                                         0x84 (size before relaxing)
 .stab          0x000000000000156c      0x300 /usr/lib/gcc/avr/4.8.2/../../../avr/lib/avr5/libc.a(iob.o)
                                        0x48c (size before relaxing)
 .stab          0x000000000000186c      0x30c /usr/lib/gcc/avr/4.8.2/../../../avr/lib/avr5/libc.a(printf.o)
                                        0x4ec (size before relaxing)
 .stab          0x0000000000001b78      0x300 /usr/lib/gcc/avr/4.8.2/../../../avr/lib/avr5/libc.a(putchar.o)
                                        0x4e0 (size before relaxing)
 .stab          0x0000000000001e78      0x36c /usr/lib/gcc/avr/4.8.2/../../../avr/lib/avr5/libc.a(puts.o)
                                        0x54c (size before relaxing)
 .stab          0x00000000000021e4      0x36c /usr/lib/gcc/avr/4.8.2/../../../avr/lib/avr5/libc.a(sprintf.o)
                                        0x54c (size before relaxing)
 .stab          0x0000000000002550      0xb70 /usr/lib/gcc/avr/4.8.2/../../../avr/lib/avr5/libc.a(vfprintf_std.o)
                                        0xd80 (size before relaxing)
 .stab          0x00000000000030c0       0x90 /usr/lib/gcc/avr/4.8.2/../../../avr/lib/avr5/libc.a(eerd_byte_atmega32u4.o)
                                         0x9c (size before relaxing)
 .stab          0x0000000000003150      0x114 /usr/lib/gcc/avr/4.8.2/../../../avr/lib/avr5/libc.a(eeupd_byte_atmega32u4.o)
                                        0x120 (size before relaxing)
 .stab          0x0000000000003264       0x9c /usr/lib/gcc/avr/4.8.2/../../../avr/lib/avr5/libc.a(strnlen_P.o)
                                         0xa8 (size before relaxing)
 .stab          0x0000000000003300       0x9c /usr/lib/gcc/avr/4.8.2/../../../avr/lib/avr5/libc.a(strnlen.o)
                                         0xa8 (size before relaxing)
 .stab          0x000000000000339c      0x354 /usr/lib/gcc/avr/4.8.2/../../../avr/lib/avr5/libc.a(fputc.o)
                                        0x534 (size before relaxing)
 .stab          0x00000000000036f0      0x480 /usr/lib/gcc/avr/4.8.2/../../../avr/lib/avr5/libc.a(ultoa_invert.o)
                                        0x48c (size before relaxing)

.stabstr        0x0000000000000000     0x1429
 *(.stabstr)
 .stabstr       0x0000000000000000     0x1429 /usr/lib/gcc/avr/4.8.2/../../../avr/lib/avr5/crtm32u4.o

.stab.excl
 *(.stab.excl)

.stab.exclstr
 *(.stab.exclstr)

.stab.index
 *(.stab.index)

.stab.indexstr
 *(.stab.indexstr)

.comment        0x0000000000000000       0x11
 *(.comment)
 .comment       0x0000000000000000       0x11 MangaScreen.o
                                         0x12 (size before relaxing)
 .comment       0x0000000000000000       0x12 Descriptors.o
 .comment       0x0000000000000000       0x12 LCD.o
 .comment       0x0000000000000000       0x12 Digitizer.o
 .comment       0x0000000000000000       0x12 i2c.o
 .comment       0x0000000000000000       0x12 ../../LUFA/Drivers/USB/Class/Common/HIDParser.o
 .comment       0x0000000000000000       0x12 ../../LUFA/Drivers/USB/Core/AVR8/Device_AVR8.o
 .comment       0x0000000000000000       0x12 ../../LUFA/Drivers/USB/Core/AVR8/EndpointStream_AVR8.o
 .comment       0x0000000000000000       0x12 ../../LUFA/Drivers/USB/Core/AVR8/Endpoint_AVR8.o
 .comment       0x0000000000000000       0x12 ../../LUFA/Drivers/USB/Core/AVR8/Host_AVR8.o
 .comment       0x0000000000000000       0x12 ../../LUFA/Drivers/USB/Core/AVR8/PipeStream_AVR8.o
 .comment       0x0000000000000000       0x12 ../../LUFA/Drivers/USB/Core/AVR8/Pipe_AVR8.o
 .comment       0x0000000000000000       0x12 ../../LUFA/Drivers/USB/Core/AVR8/USBController_AVR8.o
 .comment       0x0000000000000000       0x12 ../../LUFA/Drivers/USB/Core/AVR8/USBInterrupt_AVR8.o
 .comment       0x0000000000000000       0x12 ../../LUFA/Drivers/USB/Core/ConfigDescriptors.o
 .comment       0x0000000000000000       0x12 ../../LUFA/Drivers/USB/Core/DeviceStandardReq.o
 .comment       0x0000000000000000       0x12 ../../LUFA/Drivers/USB/Core/Events.o
 .comment       0x0000000000000000       0x12 ../../LUFA/Drivers/USB/Core/HostStandardReq.o
 .comment       0x0000000000000000       0x12 ../../LUFA/Drivers/USB/Core/USBTask.o
 .comment       0x0000000000000000       0x12 ../../LUFA/Drivers/USB/Class/Device/AudioClassDevice.o
 .comment       0x0000000000000000       0x12 ../../LUFA/Drivers/USB/Class/Device/CDCClassDevice.o
 .comment       0x0000000000000000       0x12 ../../LUFA/Drivers/USB/Class/Device/HIDClassDevice.o
 .comment       0x0000000000000000       0x12 ../../LUFA/Drivers/USB/Class/Device/MassStorageClassDevice.o
 .comment       0x0000000000000000       0x12 ../../LUFA/Drivers/USB/Class/Device/MIDIClassDevice.o
 .comment       0x0000000000000000       0x12 ../../LUFA/Drivers/USB/Class/Device/RNDISClassDevice.o
 .comment       0x0000000000000000       0x12 ../../LUFA/Drivers/USB/Class/Host/AndroidAccessoryClassHost.o
 .comment       0x0000000000000000       0x12 ../../LUFA/Drivers/USB/Class/Host/AudioClassHost.o
 .comment       0x0000000000000000       0x12 ../../LUFA/Drivers/USB/Class/Host/CDCClassHost.o
 .comment       0x0000000000000000       0x12 ../../LUFA/Drivers/USB/Class/Host/HIDClassHost.o
 .comment       0x0000000000000000       0x12 ../../LUFA/Drivers/USB/Class/Host/MassStorageClassHost.o
 .comment       0x0000000000000000       0x12 ../../LUFA/Drivers/USB/Class/Host/MIDIClassHost.o
 .comment       0x0000000000000000       0x12 ../../LUFA/Drivers/USB/Class/Host/PrinterClassHost.o
 .comment       0x0000000000000000       0x12 ../../LUFA/Drivers/USB/Class/Host/RNDISClassHost.o
 .comment       0x0000000000000000       0x12 ../../LUFA/Drivers/USB/Class/Host/StillImageClassHost.o
 .comment       0x0000000000000000       0x12 /usr/lib/gcc/avr/4.8.2/../../../avr/lib/avr5/libc.a(malloc.o)
 .comment       0x0000000000000000       0x12 /usr/lib/gcc/avr/4.8.2/../../../avr/lib/avr5/libc.a(iob.o)
 .comment       0x0000000000000000       0x12 /usr/lib/gcc/avr/4.8.2/../../../avr/lib/avr5/libc.a(printf.o)
 .comment       0x0000000000000000       0x12 /usr/lib/gcc/avr/4.8.2/../../../avr/lib/avr5/libc.a(putchar.o)
 .comment       0x0000000000000000       0x12 /usr/lib/gcc/avr/4.8.2/../../../avr/lib/avr5/libc.a(puts.o)
 .comment       0x0000000000000000       0x12 /usr/lib/gcc/avr/4.8.2/../../../avr/lib/avr5/libc.a(sprintf.o)
 .comment       0x0000000000000000       0x12 /usr/lib/gcc/avr/4.8.2/../../../avr/lib/avr5/libc.a(vfprintf_std.o)
 .comment       0x0000000000000000       0x12 /usr/lib/gcc/avr/4.8.2/../../../avr/lib/avr5/libc.a(fputc.o)

.debug
 *(.debug)

.line
 *(.line)

.debug_srcinfo
 *(.debug_srcinfo)

.debug_sfnames
 *(.debug_sfnames)

.debug_aranges  0x0000000000000000      0x748
 *(.debug_aranges)
 .debug_aranges
                0x0000000000000000       0x88 MangaScreen.o
 .debug_aranges
                0x0000000000000088       0x20 Descriptors.o
 .debug_aranges
                0x00000000000000a8       0x68 LCD.o
 .debug_aranges
                0x0000000000000110       0x78 Digitizer.o
 .debug_aranges
                0x0000000000000188       0x70 i2c.o
 .debug_aranges
                0x00000000000001f8       0x38 ../../LUFA/Drivers/USB/Class/Common/HIDParser.o
 .debug_aranges
                0x0000000000000230       0x20 ../../LUFA/Drivers/USB/Core/AVR8/Device_AVR8.o
 .debug_aranges
                0x0000000000000250       0xc8 ../../LUFA/Drivers/USB/Core/AVR8/EndpointStream_AVR8.o
 .debug_aranges
                0x0000000000000318       0x40 ../../LUFA/Drivers/USB/Core/AVR8/Endpoint_AVR8.o
 .debug_aranges
                0x0000000000000358       0x18 ../../LUFA/Drivers/USB/Core/AVR8/Host_AVR8.o
 .debug_aranges
                0x0000000000000370       0x18 ../../LUFA/Drivers/USB/Core/AVR8/PipeStream_AVR8.o
 .debug_aranges
                0x0000000000000388       0x18 ../../LUFA/Drivers/USB/Core/AVR8/Pipe_AVR8.o
 .debug_aranges
                0x00000000000003a0       0x30 ../../LUFA/Drivers/USB/Core/AVR8/USBController_AVR8.o
 .debug_aranges
                0x00000000000003d0       0x38 ../../LUFA/Drivers/USB/Core/AVR8/USBInterrupt_AVR8.o
 .debug_aranges
                0x0000000000000408       0x40 ../../LUFA/Drivers/USB/Core/ConfigDescriptors.o
 .debug_aranges
                0x0000000000000448       0x20 ../../LUFA/Drivers/USB/Core/DeviceStandardReq.o
 .debug_aranges
                0x0000000000000468       0x20 ../../LUFA/Drivers/USB/Core/Events.o
 .debug_aranges
                0x0000000000000488       0x18 ../../LUFA/Drivers/USB/Core/HostStandardReq.o
 .debug_aranges
                0x00000000000004a0       0x20 ../../LUFA/Drivers/USB/Core/USBTask.o
 .debug_aranges
                0x00000000000004c0       0x30 ../../LUFA/Drivers/USB/Class/Device/AudioClassDevice.o
 .debug_aranges
                0x00000000000004f0       0x98 ../../LUFA/Drivers/USB/Class/Device/CDCClassDevice.o
 .debug_aranges
                0x0000000000000588       0x30 ../../LUFA/Drivers/USB/Class/Device/HIDClassDevice.o
 .debug_aranges
                0x00000000000005b8       0x30 ../../LUFA/Drivers/USB/Class/Device/MassStorageClassDevice.o
 .debug_aranges
                0x00000000000005e8       0x40 ../../LUFA/Drivers/USB/Class/Device/MIDIClassDevice.o
 .debug_aranges
                0x0000000000000628       0x48 ../../LUFA/Drivers/USB/Class/Device/RNDISClassDevice.o
 .debug_aranges
                0x0000000000000670       0x18 ../../LUFA/Drivers/USB/Class/Host/AndroidAccessoryClassHost.o
 .debug_aranges
                0x0000000000000688       0x18 ../../LUFA/Drivers/USB/Class/Host/AudioClassHost.o
 .debug_aranges
                0x00000000000006a0       0x18 ../../LUFA/Drivers/USB/Class/Host/CDCClassHost.o
 .debug_aranges
                0x00000000000006b8       0x18 ../../LUFA/Drivers/USB/Class/Host/HIDClassHost.o
 .debug_aranges
                0x00000000000006d0       0x18 ../../LUFA/Drivers/USB/Class/Host/MassStorageClassHost.o
 .debug_aranges
                0x00000000000006e8       0x18 ../../LUFA/Drivers/USB/Class/Host/MIDIClassHost.o
 .debug_aranges
                0x0000000000000700       0x18 ../../LUFA/Drivers/USB/Class/Host/PrinterClassHost.o
 .debug_aranges
                0x0000000000000718       0x18 ../../LUFA/Drivers/USB/Class/Host/RNDISClassHost.o
 .debug_aranges
                0x0000000000000730       0x18 ../../LUFA/Drivers/USB/Class/Host/StillImageClassHost.o

.debug_pubnames
 *(.debug_pubnames)

.debug_info     0x0000000000000000     0xbed4
 *(.debug_info)
 .debug_info    0x0000000000000000     0x152b MangaScreen.o
 .debug_info    0x000000000000152b      0x947 Descriptors.o
 .debug_info    0x0000000000001e72      0x593 LCD.o
 .debug_info    0x0000000000002405      0xb0b Digitizer.o
 .debug_info    0x0000000000002f10      0x612 i2c.o
 .debug_info    0x0000000000003522      0x73c ../../LUFA/Drivers/USB/Class/Common/HIDParser.o
 .debug_info    0x0000000000003c5e       0xd2 ../../LUFA/Drivers/USB/Core/AVR8/Device_AVR8.o
 .debug_info    0x0000000000003d30     0x175a ../../LUFA/Drivers/USB/Core/AVR8/EndpointStream_AVR8.o
 .debug_info    0x000000000000548a      0x614 ../../LUFA/Drivers/USB/Core/AVR8/Endpoint_AVR8.o
 .debug_info    0x0000000000005a9e       0x56 ../../LUFA/Drivers/USB/Core/AVR8/Host_AVR8.o
 .debug_info    0x0000000000005af4       0x56 ../../LUFA/Drivers/USB/Core/AVR8/PipeStream_AVR8.o
 .debug_info    0x0000000000005b4a       0x56 ../../LUFA/Drivers/USB/Core/AVR8/Pipe_AVR8.o
 .debug_info    0x0000000000005ba0      0x4cc ../../LUFA/Drivers/USB/Core/AVR8/USBController_AVR8.o
 .debug_info    0x000000000000606c      0x7c4 ../../LUFA/Drivers/USB/Core/AVR8/USBInterrupt_AVR8.o
 .debug_info    0x0000000000006830      0x3c9 ../../LUFA/Drivers/USB/Core/ConfigDescriptors.o
 .debug_info    0x0000000000006bf9      0xa53 ../../LUFA/Drivers/USB/Core/DeviceStandardReq.o
 .debug_info    0x000000000000764c       0x78 ../../LUFA/Drivers/USB/Core/Events.o
 .debug_info    0x00000000000076c4       0x56 ../../LUFA/Drivers/USB/Core/HostStandardReq.o
 .debug_info    0x000000000000771a      0x26b ../../LUFA/Drivers/USB/Core/USBTask.o
 .debug_info    0x0000000000007985      0x8fc ../../LUFA/Drivers/USB/Class/Device/AudioClassDevice.o
 .debug_info    0x0000000000008281      0xe7e ../../LUFA/Drivers/USB/Class/Device/CDCClassDevice.o
 .debug_info    0x00000000000090ff      0x9ea ../../LUFA/Drivers/USB/Class/Device/HIDClassDevice.o
 .debug_info    0x0000000000009ae9      0x95b ../../LUFA/Drivers/USB/Class/Device/MassStorageClassDevice.o
 .debug_info    0x000000000000a444      0x612 ../../LUFA/Drivers/USB/Class/Device/MIDIClassDevice.o
 .debug_info    0x000000000000aa56     0x1178 ../../LUFA/Drivers/USB/Class/Device/RNDISClassDevice.o
 .debug_info    0x000000000000bbce       0x56 ../../LUFA/Drivers/USB/Class/Host/AndroidAccessoryClassHost.o
 .debug_info    0x000000000000bc24       0x56 ../../LUFA/Drivers/USB/Class/Host/AudioClassHost.o
 .debug_info    0x000000000000bc7a       0x56 ../../LUFA/Drivers/USB/Class/Host/CDCClassHost.o
 .debug_info    0x000000000000bcd0       0x56 ../../LUFA/Drivers/USB/Class/Host/HIDClassHost.o
 .debug_info    0x000000000000bd26       0x56 ../../LUFA/Drivers/USB/Class/Host/MassStorageClassHost.o
 .debug_info    0x000000000000bd7c       0x56 ../../LUFA/Drivers/USB/Class/Host/MIDIClassHost.o
 .debug_info    0x000000000000bdd2       0x56 ../../LUFA/Drivers/USB/Class/Host/PrinterClassHost.o
 .debug_info    0x000000000000be28       0x56 ../../LUFA/Drivers/USB/Class/Host/RNDISClassHost.o
 .debug_info    0x000000000000be7e       0x56 ../../LUFA/Drivers/USB/Class/Host/StillImageClassHost.o
 *(.gnu.linkonce.wi.*)

.debug_abbrev   0x0000000000000000     0x3102
 *(.debug_abbrev)
 .debug_abbrev  0x0000000000000000      0x552 MangaScreen.o
 .debug_abbrev  0x0000000000000552      0x177 Descriptors.o
 .debug_abbrev  0x00000000000006c9      0x1e7 LCD.o
 .debug_abbrev  0x00000000000008b0      0x353 Digitizer.o
 .debug_abbrev  0x0000000000000c03      0x1a6 i2c.o
 .debug_abbrev  0x0000000000000da9      0x21e ../../LUFA/Drivers/USB/Class/Common/HIDParser.o
 .debug_abbrev  0x0000000000000fc7       0x80 ../../LUFA/Drivers/USB/Core/AVR8/Device_AVR8.o
 .debug_abbrev  0x0000000000001047      0x213 ../../LUFA/Drivers/USB/Core/AVR8/EndpointStream_AVR8.o
 .debug_abbrev  0x000000000000125a      0x222 ../../LUFA/Drivers/USB/Core/AVR8/Endpoint_AVR8.o
 .debug_abbrev  0x000000000000147c       0x26 ../../LUFA/Drivers/USB/Core/AVR8/Host_AVR8.o
 .debug_abbrev  0x00000000000014a2       0x26 ../../LUFA/Drivers/USB/Core/AVR8/PipeStream_AVR8.o
 .debug_abbrev  0x00000000000014c8       0x26 ../../LUFA/Drivers/USB/Core/AVR8/Pipe_AVR8.o
 .debug_abbrev  0x00000000000014ee      0x1a5 ../../LUFA/Drivers/USB/Core/AVR8/USBController_AVR8.o
 .debug_abbrev  0x0000000000001693      0x234 ../../LUFA/Drivers/USB/Core/AVR8/USBInterrupt_AVR8.o
 .debug_abbrev  0x00000000000018c7      0x176 ../../LUFA/Drivers/USB/Core/ConfigDescriptors.o
 .debug_abbrev  0x0000000000001a3d      0x2af ../../LUFA/Drivers/USB/Core/DeviceStandardReq.o
 .debug_abbrev  0x0000000000001cec       0x44 ../../LUFA/Drivers/USB/Core/Events.o
 .debug_abbrev  0x0000000000001d30       0x26 ../../LUFA/Drivers/USB/Core/HostStandardReq.o
 .debug_abbrev  0x0000000000001d56      0x168 ../../LUFA/Drivers/USB/Core/USBTask.o
 .debug_abbrev  0x0000000000001ebe      0x20c ../../LUFA/Drivers/USB/Class/Device/AudioClassDevice.o
 .debug_abbrev  0x00000000000020ca      0x41d ../../LUFA/Drivers/USB/Class/Device/CDCClassDevice.o
 .debug_abbrev  0x00000000000024e7      0x26b ../../LUFA/Drivers/USB/Class/Device/HIDClassDevice.o
 .debug_abbrev  0x0000000000002752      0x2a8 ../../LUFA/Drivers/USB/Class/Device/MassStorageClassDevice.o
 .debug_abbrev  0x00000000000029fa      0x243 ../../LUFA/Drivers/USB/Class/Device/MIDIClassDevice.o
 .debug_abbrev  0x0000000000002c3d      0x36f ../../LUFA/Drivers/USB/Class/Device/RNDISClassDevice.o
 .debug_abbrev  0x0000000000002fac       0x26 ../../LUFA/Drivers/USB/Class/Host/AndroidAccessoryClassHost.o
 .debug_abbrev  0x0000000000002fd2       0x26 ../../LUFA/Drivers/USB/Class/Host/AudioClassHost.o
 .debug_abbrev  0x0000000000002ff8       0x26 ../../LUFA/Drivers/USB/Class/Host/CDCClassHost.o
 .debug_abbrev  0x000000000000301e       0x26 ../../LUFA/Drivers/USB/Class/Host/HIDClassHost.o
 .debug_abbrev  0x0000000000003044       0x26 ../../LUFA/Drivers/USB/Class/Host/MassStorageClassHost.o
 .debug_abbrev  0x000000000000306a       0x26 ../../LUFA/Drivers/USB/Class/Host/MIDIClassHost.o
 .debug_abbrev  0x0000000000003090       0x26 ../../LUFA/Drivers/USB/Class/Host/PrinterClassHost.o
 .debug_abbrev  0x00000000000030b6       0x26 ../../LUFA/Drivers/USB/Class/Host/RNDISClassHost.o
 .debug_abbrev  0x00000000000030dc       0x26 ../../LUFA/Drivers/USB/Class/Host/StillImageClassHost.o

.debug_line     0x0000000000000000     0x42ec
 *(.debug_line)
 .debug_line    0x0000000000000000      0x62c MangaScreen.o
 .debug_line    0x000000000000062c      0x189 Descriptors.o
 .debug_line    0x00000000000007b5      0x1d9 LCD.o
 .debug_line    0x000000000000098e      0x2ca Digitizer.o
 .debug_line    0x0000000000000c58      0x24e i2c.o
 .debug_line    0x0000000000000ea6      0x211 ../../LUFA/Drivers/USB/Class/Common/HIDParser.o
 .debug_line    0x00000000000010b7       0xe8 ../../LUFA/Drivers/USB/Core/AVR8/Device_AVR8.o
 .debug_line    0x000000000000119f      0xb79 ../../LUFA/Drivers/USB/Core/AVR8/EndpointStream_AVR8.o
 .debug_line    0x0000000000001d18      0x327 ../../LUFA/Drivers/USB/Core/AVR8/Endpoint_AVR8.o
 .debug_line    0x000000000000203f       0x1a ../../LUFA/Drivers/USB/Core/AVR8/Host_AVR8.o
 .debug_line    0x0000000000002059       0x1a ../../LUFA/Drivers/USB/Core/AVR8/PipeStream_AVR8.o
 .debug_line    0x0000000000002073       0x1a ../../LUFA/Drivers/USB/Core/AVR8/Pipe_AVR8.o
 .debug_line    0x000000000000208d      0x21b ../../LUFA/Drivers/USB/Core/AVR8/USBController_AVR8.o
 .debug_line    0x00000000000022a8      0x3e6 ../../LUFA/Drivers/USB/Core/AVR8/USBInterrupt_AVR8.o
 .debug_line    0x000000000000268e      0x13f ../../LUFA/Drivers/USB/Core/ConfigDescriptors.o
 .debug_line    0x00000000000027cd      0x303 ../../LUFA/Drivers/USB/Core/DeviceStandardReq.o
 .debug_line    0x0000000000002ad0       0x51 ../../LUFA/Drivers/USB/Core/Events.o
 .debug_line    0x0000000000002b21       0x1a ../../LUFA/Drivers/USB/Core/HostStandardReq.o
 .debug_line    0x0000000000002b3b      0x133 ../../LUFA/Drivers/USB/Core/USBTask.o
 .debug_line    0x0000000000002c6e      0x2bc ../../LUFA/Drivers/USB/Class/Device/AudioClassDevice.o
 .debug_line    0x0000000000002f2a      0x54c ../../LUFA/Drivers/USB/Class/Device/CDCClassDevice.o
 .debug_line    0x0000000000003476      0x374 ../../LUFA/Drivers/USB/Class/Device/HIDClassDevice.o
 .debug_line    0x00000000000037ea      0x338 ../../LUFA/Drivers/USB/Class/Device/MassStorageClassDevice.o
 .debug_line    0x0000000000003b22      0x2b5 ../../LUFA/Drivers/USB/Class/Device/MIDIClassDevice.o
 .debug_line    0x0000000000003dd7      0x42b ../../LUFA/Drivers/USB/Class/Device/RNDISClassDevice.o
 .debug_line    0x0000000000004202       0x1a ../../LUFA/Drivers/USB/Class/Host/AndroidAccessoryClassHost.o
 .debug_line    0x000000000000421c       0x1a ../../LUFA/Drivers/USB/Class/Host/AudioClassHost.o
 .debug_line    0x0000000000004236       0x1a ../../LUFA/Drivers/USB/Class/Host/CDCClassHost.o
 .debug_line    0x0000000000004250       0x1a ../../LUFA/Drivers/USB/Class/Host/HIDClassHost.o
 .debug_line    0x000000000000426a       0x1a ../../LUFA/Drivers/USB/Class/Host/MassStorageClassHost.o
 .debug_line    0x0000000000004284       0x1a ../../LUFA/Drivers/USB/Class/Host/MIDIClassHost.o
 .debug_line    0x000000000000429e       0x1a ../../LUFA/Drivers/USB/Class/Host/PrinterClassHost.o
 .debug_line    0x00000000000042b8       0x1a ../../LUFA/Drivers/USB/Class/Host/RNDISClassHost.o
 .debug_line    0x00000000000042d2       0x1a ../../LUFA/Drivers/USB/Class/Host/StillImageClassHost.o

.debug_frame    0x0000000000000000     0x12a0
 *(.debug_frame)
 .debug_frame   0x0000000000000000      0x13c MangaScreen.o
 .debug_frame   0x000000000000013c       0x24 Descriptors.o
 .debug_frame   0x0000000000000160       0xc4 LCD.o
 .debug_frame   0x0000000000000224      0x1d0 Digitizer.o
 .debug_frame   0x00000000000003f4      0x184 i2c.o
 .debug_frame   0x0000000000000578      0x114 ../../LUFA/Drivers/USB/Class/Common/HIDParser.o
 .debug_frame   0x000000000000068c       0x24 ../../LUFA/Drivers/USB/Core/AVR8/Device_AVR8.o
 .debug_frame   0x00000000000006b0      0x3ac ../../LUFA/Drivers/USB/Core/AVR8/EndpointStream_AVR8.o
 .debug_frame   0x0000000000000a5c       0x78 ../../LUFA/Drivers/USB/Core/AVR8/Endpoint_AVR8.o
 .debug_frame   0x0000000000000ad4       0x58 ../../LUFA/Drivers/USB/Core/AVR8/USBController_AVR8.o
 .debug_frame   0x0000000000000b2c       0xe8 ../../LUFA/Drivers/USB/Core/AVR8/USBInterrupt_AVR8.o
 .debug_frame   0x0000000000000c14      0x108 ../../LUFA/Drivers/USB/Core/ConfigDescriptors.o
 .debug_frame   0x0000000000000d1c       0x3c ../../LUFA/Drivers/USB/Core/DeviceStandardReq.o
 .debug_frame   0x0000000000000d58       0x24 ../../LUFA/Drivers/USB/Core/Events.o
 .debug_frame   0x0000000000000d7c       0x2c ../../LUFA/Drivers/USB/Core/USBTask.o
 .debug_frame   0x0000000000000da8       0xa8 ../../LUFA/Drivers/USB/Class/Device/AudioClassDevice.o
 .debug_frame   0x0000000000000e50      0x168 ../../LUFA/Drivers/USB/Class/Device/CDCClassDevice.o
 .debug_frame   0x0000000000000fb8       0xe4 ../../LUFA/Drivers/USB/Class/Device/HIDClassDevice.o
 .debug_frame   0x000000000000109c       0x80 ../../LUFA/Drivers/USB/Class/Device/MassStorageClassDevice.o
 .debug_frame   0x000000000000111c       0x70 ../../LUFA/Drivers/USB/Class/Device/MIDIClassDevice.o
 .debug_frame   0x000000000000118c      0x114 ../../LUFA/Drivers/USB/Class/Device/RNDISClassDevice.o

.debug_str      0x0000000000000000     0x43f1
 *(.debug_str)
 .debug_str     0x0000000000000000      0x9b5 MangaScreen.o
                                        0xa9a (size before relaxing)
 .debug_str     0x00000000000009b5      0xbc1 Descriptors.o
                                        0xe07 (size before relaxing)
 .debug_str     0x0000000000001576       0x4e LCD.o
                                        0x27c (size before relaxing)
 .debug_str     0x00000000000015c4      0x2fe Digitizer.o
                                        0x5f7 (size before relaxing)
 .debug_str     0x00000000000018c2       0x77 i2c.o
                                        0x25c (size before relaxing)
 .debug_str     0x0000000000001939      0x476 ../../LUFA/Drivers/USB/Class/Common/HIDParser.o
                                        0x6d9 (size before relaxing)
 .debug_str     0x0000000000001daf       0x77 ../../LUFA/Drivers/USB/Core/AVR8/Device_AVR8.o
                                        0x215 (size before relaxing)
 .debug_str     0x0000000000001e26      0x67e ../../LUFA/Drivers/USB/Core/AVR8/EndpointStream_AVR8.o
                                        0x878 (size before relaxing)
 .debug_str     0x00000000000024a4      0x2d6 ../../LUFA/Drivers/USB/Core/AVR8/Endpoint_AVR8.o
                                        0x637 (size before relaxing)
 .debug_str     0x000000000000277a       0x2d ../../LUFA/Drivers/USB/Core/AVR8/Host_AVR8.o
                                        0x1b4 (size before relaxing)
 .debug_str     0x00000000000027a7       0x33 ../../LUFA/Drivers/USB/Core/AVR8/PipeStream_AVR8.o
                                        0x1ba (size before relaxing)
 .debug_str     0x00000000000027da       0x2d ../../LUFA/Drivers/USB/Core/AVR8/Pipe_AVR8.o
                                        0x1b4 (size before relaxing)
 .debug_str     0x0000000000002807      0x1fa ../../LUFA/Drivers/USB/Core/AVR8/USBController_AVR8.o
                                        0x576 (size before relaxing)
 .debug_str     0x0000000000002a01      0x157 ../../LUFA/Drivers/USB/Core/AVR8/USBInterrupt_AVR8.o
                                        0x5f5 (size before relaxing)
 .debug_str     0x0000000000002b58      0x227 ../../LUFA/Drivers/USB/Core/ConfigDescriptors.o
                                        0x3fd (size before relaxing)
 .debug_str     0x0000000000002d7f      0x391 ../../LUFA/Drivers/USB/Core/DeviceStandardReq.o
                                        0x9e9 (size before relaxing)
 .debug_str     0x0000000000003110       0x34 ../../LUFA/Drivers/USB/Core/Events.o
                                        0x1bb (size before relaxing)
 .debug_str     0x0000000000003144       0x2e ../../LUFA/Drivers/USB/Core/HostStandardReq.o
                                        0x1b5 (size before relaxing)
 .debug_str     0x0000000000003172       0x42 ../../LUFA/Drivers/USB/Core/USBTask.o
                                        0x39c (size before relaxing)
 .debug_str     0x00000000000031b4      0x274 ../../LUFA/Drivers/USB/Class/Device/AudioClassDevice.o
                                        0x6d1 (size before relaxing)
 .debug_str     0x0000000000003428      0x270 ../../LUFA/Drivers/USB/Class/Device/CDCClassDevice.o
                                        0xa26 (size before relaxing)
 .debug_str     0x0000000000003698      0x10e ../../LUFA/Drivers/USB/Class/Device/HIDClassDevice.o
                                        0x723 (size before relaxing)
 .debug_str     0x00000000000037a6      0x264 ../../LUFA/Drivers/USB/Class/Device/MassStorageClassDevice.o
                                        0x81d (size before relaxing)
 .debug_str     0x0000000000003a0a      0x118 ../../LUFA/Drivers/USB/Class/Device/MIDIClassDevice.o
                                        0x67b (size before relaxing)
 .debug_str     0x0000000000003b22      0x6f1 ../../LUFA/Drivers/USB/Class/Device/RNDISClassDevice.o
                                        0xd84 (size before relaxing)
 .debug_str     0x0000000000004213       0x3e ../../LUFA/Drivers/USB/Class/Host/AndroidAccessoryClassHost.o
                                        0x1c5 (size before relaxing)
 .debug_str     0x0000000000004251       0x33 ../../LUFA/Drivers/USB/Class/Host/AudioClassHost.o
                                        0x1ba (size before relaxing)
 .debug_str     0x0000000000004284       0x31 ../../LUFA/Drivers/USB/Class/Host/CDCClassHost.o
                                        0x1b8 (size before relaxing)
 .debug_str     0x00000000000042b5       0x31 ../../LUFA/Drivers/USB/Class/Host/HIDClassHost.o
                                        0x1b8 (size before relaxing)
 .debug_str     0x00000000000042e6       0x39 ../../LUFA/Drivers/USB/Class/Host/MassStorageClassHost.o
                                        0x1c0 (size before relaxing)
 .debug_str     0x000000000000431f       0x32 ../../LUFA/Drivers/USB/Class/Host/MIDIClassHost.o
                                        0x1b9 (size before relaxing)
 .debug_str     0x0000000000004351       0x35 ../../LUFA/Drivers/USB/Class/Host/PrinterClassHost.o
                                        0x1bc (size before relaxing)
 .debug_str     0x0000000000004386       0x33 ../../LUFA/Drivers/USB/Class/Host/RNDISClassHost.o
                                        0x1ba (size before relaxing)
 .debug_str     0x00000000000043b9       0x38 ../../LUFA/Drivers/USB/Class/Host/StillImageClassHost.o
                                        0x1bf (size before relaxing)

.debug_loc      0x0000000000000000     0x7383
 *(.debug_loc)
 .debug_loc     0x0000000000000000      0x5e7 MangaScreen.o
 .debug_loc     0x00000000000005e7      0x24b Descriptors.o
 .debug_loc     0x0000000000000832      0x1bb LCD.o
 .debug_loc     0x00000000000009ed      0x6b4 Digitizer.o
 .debug_loc     0x00000000000010a1      0x875 i2c.o
 .debug_loc     0x0000000000001916      0xab2 ../../LUFA/Drivers/USB/Class/Common/HIDParser.o
 .debug_loc     0x00000000000023c8     0x1dc8 ../../LUFA/Drivers/USB/Core/AVR8/EndpointStream_AVR8.o
 .debug_loc     0x0000000000004190      0x3f2 ../../LUFA/Drivers/USB/Core/AVR8/Endpoint_AVR8.o
 .debug_loc     0x0000000000004582       0x49 ../../LUFA/Drivers/USB/Core/AVR8/USBController_AVR8.o
 .debug_loc     0x00000000000045cb      0x333 ../../LUFA/Drivers/USB/Core/AVR8/USBInterrupt_AVR8.o
 .debug_loc     0x00000000000048fe      0x5bd ../../LUFA/Drivers/USB/Core/ConfigDescriptors.o
 .debug_loc     0x0000000000004ebb      0x2a8 ../../LUFA/Drivers/USB/Core/DeviceStandardReq.o
 .debug_loc     0x0000000000005163       0x49 ../../LUFA/Drivers/USB/Core/USBTask.o
 .debug_loc     0x00000000000051ac      0x37c ../../LUFA/Drivers/USB/Class/Device/AudioClassDevice.o
 .debug_loc     0x0000000000005528      0x85b ../../LUFA/Drivers/USB/Class/Device/CDCClassDevice.o
 .debug_loc     0x0000000000005d83      0x42b ../../LUFA/Drivers/USB/Class/Device/HIDClassDevice.o
 .debug_loc     0x00000000000061ae      0x29f ../../LUFA/Drivers/USB/Class/Device/MassStorageClassDevice.o
 .debug_loc     0x000000000000644d      0x2b8 ../../LUFA/Drivers/USB/Class/Device/MIDIClassDevice.o
 .debug_loc     0x0000000000006705      0xc7e ../../LUFA/Drivers/USB/Class/Device/RNDISClassDevice.o

.debug_macinfo
 *(.debug_macinfo)

.debug_pubtypes
 *(.debug_pubtypes)

.debug_ranges   0x0000000000000000      0x810
 *(.debug_ranges)
 .debug_ranges  0x0000000000000000       0xa8 MangaScreen.o
 .debug_ranges  0x00000000000000a8       0x10 Descriptors.o
 .debug_ranges  0x00000000000000b8       0x58 LCD.o
 .debug_ranges  0x0000000000000110       0x68 Digitizer.o
 .debug_ranges  0x0000000000000178       0x60 i2c.o
 .debug_ranges  0x00000000000001d8       0xd0 ../../LUFA/Drivers/USB/Class/Common/HIDParser.o
 .debug_ranges  0x00000000000002a8       0x10 ../../LUFA/Drivers/USB/Core/AVR8/Device_AVR8.o
 .debug_ranges  0x00000000000002b8      0x250 ../../LUFA/Drivers/USB/Core/AVR8/EndpointStream_AVR8.o
 .debug_ranges  0x0000000000000508       0x90 ../../LUFA/Drivers/USB/Core/AVR8/Endpoint_AVR8.o
 .debug_ranges  0x0000000000000598       0x20 ../../LUFA/Drivers/USB/Core/AVR8/USBController_AVR8.o
 .debug_ranges  0x00000000000005b8       0x28 ../../LUFA/Drivers/USB/Core/AVR8/USBInterrupt_AVR8.o
 .debug_ranges  0x00000000000005e0       0x30 ../../LUFA/Drivers/USB/Core/ConfigDescriptors.o
 .debug_ranges  0x0000000000000610       0x40 ../../LUFA/Drivers/USB/Core/DeviceStandardReq.o
 .debug_ranges  0x0000000000000650       0x10 ../../LUFA/Drivers/USB/Core/Events.o
 .debug_ranges  0x0000000000000660       0x10 ../../LUFA/Drivers/USB/Core/USBTask.o
 .debug_ranges  0x0000000000000670       0x20 ../../LUFA/Drivers/USB/Class/Device/AudioClassDevice.o
 .debug_ranges  0x0000000000000690       0x88 ../../LUFA/Drivers/USB/Class/Device/CDCClassDevice.o
 .debug_ranges  0x0000000000000718       0x20 ../../LUFA/Drivers/USB/Class/Device/HIDClassDevice.o
 .debug_ranges  0x0000000000000738       0x20 ../../LUFA/Drivers/USB/Class/Device/MassStorageClassDevice.o
 .debug_ranges  0x0000000000000758       0x30 ../../LUFA/Drivers/USB/Class/Device/MIDIClassDevice.o
 .debug_ranges  0x0000000000000788       0x88 ../../LUFA/Drivers/USB/Class/Device/RNDISClassDevice.o

.debug_macro
 *(.debug_macro)
OUTPUT(MangaScreen.elf elf32-avr)
LOAD linker stubs

Cross Reference Table

Symbol                                            File
Audio_Device_ConfigureEndpoints                   ../../LUFA/Drivers/USB/Class/Device/AudioClassDevice.o
Audio_Device_Event_Stub                           ../../LUFA/Drivers/USB/Class/Device/AudioClassDevice.o
Audio_Device_ProcessControlRequest                ../../LUFA/Drivers/USB/Class/Device/AudioClassDevice.o
BL_on                                             LCD.o
                                                  MangaScreen.o
CALLBACK_Audio_Device_GetSetEndpointProperty      ../../LUFA/Drivers/USB/Class/Device/AudioClassDevice.o
CALLBACK_Audio_Device_GetSetInterfaceProperty     ../../LUFA/Drivers/USB/Class/Device/AudioClassDevice.o
CALLBACK_HIDParser_FilterHIDReportItem            ../../LUFA/Drivers/USB/Class/Common/HIDParser.o
CALLBACK_HID_Device_CreateHIDReport               MangaScreen.o
                                                  ../../LUFA/Drivers/USB/Class/Device/HIDClassDevice.o
CALLBACK_HID_Device_ProcessHIDReport              MangaScreen.o
                                                  ../../LUFA/Drivers/USB/Class/Device/HIDClassDevice.o
CALLBACK_MS_Device_SCSICommandReceived            ../../LUFA/Drivers/USB/Class/Device/MassStorageClassDevice.o
CALLBACK_USB_GetDescriptor                        Descriptors.o
                                                  ../../LUFA/Drivers/USB/Core/DeviceStandardReq.o
CDC_Device_BytesReceived                          ../../LUFA/Drivers/USB/Class/Device/CDCClassDevice.o
CDC_Device_ConfigureEndpoints                     ../../LUFA/Drivers/USB/Class/Device/CDCClassDevice.o
                                                  MangaScreen.o
CDC_Device_CreateBlockingStream                   ../../LUFA/Drivers/USB/Class/Device/CDCClassDevice.o
CDC_Device_CreateStream                           ../../LUFA/Drivers/USB/Class/Device/CDCClassDevice.o
CDC_Device_Event_Stub                             ../../LUFA/Drivers/USB/Class/Device/CDCClassDevice.o
CDC_Device_Flush                                  ../../LUFA/Drivers/USB/Class/Device/CDCClassDevice.o
CDC_Device_ProcessControlRequest                  ../../LUFA/Drivers/USB/Class/Device/CDCClassDevice.o
                                                  MangaScreen.o
CDC_Device_ReceiveByte                            ../../LUFA/Drivers/USB/Class/Device/CDCClassDevice.o
                                                  MangaScreen.o
CDC_Device_SendByte                               ../../LUFA/Drivers/USB/Class/Device/CDCClassDevice.o
                                                  MangaScreen.o
CDC_Device_SendControlLineStateChange             ../../LUFA/Drivers/USB/Class/Device/CDCClassDevice.o
CDC_Device_SendData                               ../../LUFA/Drivers/USB/Class/Device/CDCClassDevice.o
CDC_Device_SendString                             ../../LUFA/Drivers/USB/Class/Device/CDCClassDevice.o
CDC_Device_USBTask                                ../../LUFA/Drivers/USB/Class/Device/CDCClassDevice.o
                                                  MangaScreen.o
ConfigurationDescriptor                           Descriptors.o
DeviceDescriptor                                  Descriptors.o
DigitizerReport                                   Descriptors.o
                                                  MangaScreen.o
Digitizer_HID_Interface                           MangaScreen.o
EVENT_Audio_Device_StreamStartStop                ../../LUFA/Drivers/USB/Class/Device/AudioClassDevice.o
EVENT_CDC_Device_BreakSent                        ../../LUFA/Drivers/USB/Class/Device/CDCClassDevice.o
EVENT_CDC_Device_ControLineStateChanged           ../../LUFA/Drivers/USB/Class/Device/CDCClassDevice.o
EVENT_CDC_Device_LineEncodingChanged              ../../LUFA/Drivers/USB/Class/Device/CDCClassDevice.o
EVENT_USB_Device_ConfigurationChanged             MangaScreen.o
                                                  ../../LUFA/Drivers/USB/Core/DeviceStandardReq.o
EVENT_USB_Device_Connect                          MangaScreen.o
                                                  ../../LUFA/Drivers/USB/Core/AVR8/USBInterrupt_AVR8.o
EVENT_USB_Device_ControlRequest                   MangaScreen.o
                                                  ../../LUFA/Drivers/USB/Core/DeviceStandardReq.o
EVENT_USB_Device_Disconnect                       MangaScreen.o
                                                  ../../LUFA/Drivers/USB/Core/AVR8/USBInterrupt_AVR8.o
EVENT_USB_Device_Reset                            ../../LUFA/Drivers/USB/Core/Events.o
                                                  ../../LUFA/Drivers/USB/Core/AVR8/USBInterrupt_AVR8.o
EVENT_USB_Device_StartOfFrame                     MangaScreen.o
                                                  ../../LUFA/Drivers/USB/Core/AVR8/USBInterrupt_AVR8.o
EVENT_USB_Device_Suspend                          ../../LUFA/Drivers/USB/Core/Events.o
                                                  ../../LUFA/Drivers/USB/Core/AVR8/USBInterrupt_AVR8.o
EVENT_USB_Device_WakeUp                           ../../LUFA/Drivers/USB/Core/Events.o
                                                  ../../LUFA/Drivers/USB/Core/AVR8/USBInterrupt_AVR8.o
Endpoint_ClearEndpoints                           ../../LUFA/Drivers/USB/Core/AVR8/Endpoint_AVR8.o
Endpoint_ClearStatusStage                         ../../LUFA/Drivers/USB/Core/AVR8/Endpoint_AVR8.o
                                                  ../../LUFA/Drivers/USB/Class/Device/MassStorageClassDevice.o
                                                  ../../LUFA/Drivers/USB/Class/Device/HIDClassDevice.o
                                                  ../../LUFA/Drivers/USB/Class/Device/CDCClassDevice.o
                                                  ../../LUFA/Drivers/USB/Class/Device/AudioClassDevice.o
                                                  ../../LUFA/Drivers/USB/Core/DeviceStandardReq.o
Endpoint_ConfigureEndpointTable                   ../../LUFA/Drivers/USB/Core/AVR8/Endpoint_AVR8.o
                                                  ../../LUFA/Drivers/USB/Class/Device/RNDISClassDevice.o
                                                  ../../LUFA/Drivers/USB/Class/Device/MIDIClassDevice.o
                                                  ../../LUFA/Drivers/USB/Class/Device/MassStorageClassDevice.o
                                                  ../../LUFA/Drivers/USB/Class/Device/HIDClassDevice.o
                                                  ../../LUFA/Drivers/USB/Class/Device/CDCClassDevice.o
                                                  ../../LUFA/Drivers/USB/Class/Device/AudioClassDevice.o
Endpoint_ConfigureEndpoint_Prv                    ../../LUFA/Drivers/USB/Core/AVR8/Endpoint_AVR8.o
                                                  ../../LUFA/Drivers/USB/Core/AVR8/USBInterrupt_AVR8.o
                                                  ../../LUFA/Drivers/USB/Core/AVR8/USBController_AVR8.o
Endpoint_Discard_Stream                           ../../LUFA/Drivers/USB/Core/AVR8/EndpointStream_AVR8.o
Endpoint_Null_Stream                              ../../LUFA/Drivers/USB/Core/AVR8/EndpointStream_AVR8.o
Endpoint_Read_Control_EStream_BE                  ../../LUFA/Drivers/USB/Core/AVR8/EndpointStream_AVR8.o
Endpoint_Read_Control_EStream_LE                  ../../LUFA/Drivers/USB/Core/AVR8/EndpointStream_AVR8.o
Endpoint_Read_Control_Stream_BE                   ../../LUFA/Drivers/USB/Core/AVR8/EndpointStream_AVR8.o
Endpoint_Read_Control_Stream_LE                   ../../LUFA/Drivers/USB/Core/AVR8/EndpointStream_AVR8.o
                                                  ../../LUFA/Drivers/USB/Class/Device/RNDISClassDevice.o
                                                  ../../LUFA/Drivers/USB/Class/Device/HIDClassDevice.o
                                                  ../../LUFA/Drivers/USB/Class/Device/AudioClassDevice.o
Endpoint_Read_EStream_BE                          ../../LUFA/Drivers/USB/Core/AVR8/EndpointStream_AVR8.o
Endpoint_Read_EStream_LE                          ../../LUFA/Drivers/USB/Core/AVR8/EndpointStream_AVR8.o
Endpoint_Read_Stream_BE                           ../../LUFA/Drivers/USB/Core/AVR8/EndpointStream_AVR8.o
Endpoint_Read_Stream_LE                           ../../LUFA/Drivers/USB/Core/AVR8/EndpointStream_AVR8.o
                                                  ../../LUFA/Drivers/USB/Class/Device/RNDISClassDevice.o
                                                  ../../LUFA/Drivers/USB/Class/Device/MIDIClassDevice.o
                                                  ../../LUFA/Drivers/USB/Class/Device/MassStorageClassDevice.o
Endpoint_WaitUntilReady                           ../../LUFA/Drivers/USB/Core/AVR8/Endpoint_AVR8.o
                                                  ../../LUFA/Drivers/USB/Class/Device/RNDISClassDevice.o
                                                  ../../LUFA/Drivers/USB/Class/Device/MIDIClassDevice.o
                                                  ../../LUFA/Drivers/USB/Class/Device/CDCClassDevice.o
                                                  ../../LUFA/Drivers/USB/Core/AVR8/EndpointStream_AVR8.o
Endpoint_Write_Control_EStream_BE                 ../../LUFA/Drivers/USB/Core/AVR8/EndpointStream_AVR8.o
Endpoint_Write_Control_EStream_LE                 ../../LUFA/Drivers/USB/Core/AVR8/EndpointStream_AVR8.o
Endpoint_Write_Control_PStream_BE                 ../../LUFA/Drivers/USB/Core/AVR8/EndpointStream_AVR8.o
Endpoint_Write_Control_PStream_LE                 ../../LUFA/Drivers/USB/Core/AVR8/EndpointStream_AVR8.o
                                                  ../../LUFA/Drivers/USB/Core/DeviceStandardReq.o
Endpoint_Write_Control_Stream_BE                  ../../LUFA/Drivers/USB/Core/AVR8/EndpointStream_AVR8.o
Endpoint_Write_Control_Stream_LE                  ../../LUFA/Drivers/USB/Core/AVR8/EndpointStream_AVR8.o
                                                  ../../LUFA/Drivers/USB/Class/Device/RNDISClassDevice.o
                                                  ../../LUFA/Drivers/USB/Class/Device/HIDClassDevice.o
                                                  ../../LUFA/Drivers/USB/Class/Device/AudioClassDevice.o
                                                  ../../LUFA/Drivers/USB/Core/DeviceStandardReq.o
Endpoint_Write_EStream_BE                         ../../LUFA/Drivers/USB/Core/AVR8/EndpointStream_AVR8.o
Endpoint_Write_EStream_LE                         ../../LUFA/Drivers/USB/Core/AVR8/EndpointStream_AVR8.o
Endpoint_Write_PStream_BE                         ../../LUFA/Drivers/USB/Core/AVR8/EndpointStream_AVR8.o
Endpoint_Write_PStream_LE                         ../../LUFA/Drivers/USB/Core/AVR8/EndpointStream_AVR8.o
Endpoint_Write_Stream_BE                          ../../LUFA/Drivers/USB/Core/AVR8/EndpointStream_AVR8.o
Endpoint_Write_Stream_LE                          ../../LUFA/Drivers/USB/Core/AVR8/EndpointStream_AVR8.o
                                                  ../../LUFA/Drivers/USB/Class/Device/RNDISClassDevice.o
                                                  ../../LUFA/Drivers/USB/Class/Device/MIDIClassDevice.o
                                                  ../../LUFA/Drivers/USB/Class/Device/MassStorageClassDevice.o
                                                  ../../LUFA/Drivers/USB/Class/Device/HIDClassDevice.o
                                                  ../../LUFA/Drivers/USB/Class/Device/CDCClassDevice.o
HID_Device_ConfigureEndpoints                     ../../LUFA/Drivers/USB/Class/Device/HIDClassDevice.o
                                                  MangaScreen.o
HID_Device_ProcessControlRequest                  ../../LUFA/Drivers/USB/Class/Device/HIDClassDevice.o
                                                  MangaScreen.o
HID_Device_USBTask                                ../../LUFA/Drivers/USB/Class/Device/HIDClassDevice.o
                                                  MangaScreen.o
HandleSerial                                      MangaScreen.o
LCD_CS_High                                       LCD.o
LCD_CS_Low                                        LCD.o
LCD_Init                                          LCD.o
                                                  MangaScreen.o
LCD_UnInit                                        LCD.o
                                                  MangaScreen.o
LanguageString                                    Descriptors.o
LcdExtended                                       LCD.o
LcdRead                                           LCD.o
LcdTest                                           LCD.o
LcdWrite                                          LCD.o
MIDI_Device_ConfigureEndpoints                    ../../LUFA/Drivers/USB/Class/Device/MIDIClassDevice.o
MIDI_Device_Flush                                 ../../LUFA/Drivers/USB/Class/Device/MIDIClassDevice.o
MIDI_Device_ReceiveEventPacket                    ../../LUFA/Drivers/USB/Class/Device/MIDIClassDevice.o
MIDI_Device_SendEventPacket                       ../../LUFA/Drivers/USB/Class/Device/MIDIClassDevice.o
MIDI_Device_USBTask                               ../../LUFA/Drivers/USB/Class/Device/MIDIClassDevice.o
MS_Device_ConfigureEndpoints                      ../../LUFA/Drivers/USB/Class/Device/MassStorageClassDevice.o
MS_Device_ProcessControlRequest                   ../../LUFA/Drivers/USB/Class/Device/MassStorageClassDevice.o
MS_Device_USBTask                                 ../../LUFA/Drivers/USB/Class/Device/MassStorageClassDevice.o
ManufacturerString                                Descriptors.o
ProductString                                     Descriptors.o
RNDIS_Device_ConfigureEndpoints                   ../../LUFA/Drivers/USB/Class/Device/RNDISClassDevice.o
RNDIS_Device_IsPacketReceived                     ../../LUFA/Drivers/USB/Class/Device/RNDISClassDevice.o
RNDIS_Device_ProcessControlRequest                ../../LUFA/Drivers/USB/Class/Device/RNDISClassDevice.o
RNDIS_Device_ReadPacket                           ../../LUFA/Drivers/USB/Class/Device/RNDISClassDevice.o
RNDIS_Device_SendPacket                           ../../LUFA/Drivers/USB/Class/Device/RNDISClassDevice.o
RNDIS_Device_USBTask                              ../../LUFA/Drivers/USB/Class/Device/RNDISClassDevice.o
SetupHardware                                     MangaScreen.o
TWI_GetStatus                                     i2c.o
TWI_Init                                          i2c.o
                                                  Digitizer.o
TWI_Read                                          i2c.o
TWI_Start                                         i2c.o
TWI_Stop                                          i2c.o
TWI_Write                                         i2c.o
USB_ControlRequest                                ../../LUFA/Drivers/USB/Class/Device/RNDISClassDevice.o
                                                  ../../LUFA/Drivers/USB/Class/Device/MassStorageClassDevice.o
                                                  ../../LUFA/Drivers/USB/Class/Device/HIDClassDevice.o
                                                  ../../LUFA/Drivers/USB/Class/Device/CDCClassDevice.o
                                                  ../../LUFA/Drivers/USB/Class/Device/AudioClassDevice.o
                                                  ../../LUFA/Drivers/USB/Core/USBTask.o
                                                  ../../LUFA/Drivers/USB/Core/DeviceStandardReq.o
                                                  ../../LUFA/Drivers/USB/Core/AVR8/Endpoint_AVR8.o
                                                  ../../LUFA/Drivers/USB/Core/AVR8/EndpointStream_AVR8.o
USB_DeviceState                                   ../../LUFA/Drivers/USB/Class/Device/RNDISClassDevice.o
                                                  ../../LUFA/Drivers/USB/Class/Device/MIDIClassDevice.o
                                                  ../../LUFA/Drivers/USB/Class/Device/MassStorageClassDevice.o
                                                  ../../LUFA/Drivers/USB/Class/Device/HIDClassDevice.o
                                                  ../../LUFA/Drivers/USB/Class/Device/CDCClassDevice.o
                                                  ../../LUFA/Drivers/USB/Core/USBTask.o
                                                  ../../LUFA/Drivers/USB/Core/DeviceStandardReq.o
                                                  ../../LUFA/Drivers/USB/Core/AVR8/USBInterrupt_AVR8.o
                                                  ../../LUFA/Drivers/USB/Core/AVR8/USBController_AVR8.o
                                                  ../../LUFA/Drivers/USB/Core/AVR8/Endpoint_AVR8.o
                                                  ../../LUFA/Drivers/USB/Core/AVR8/EndpointStream_AVR8.o
USB_Device_ConfigurationNumber                    ../../LUFA/Drivers/USB/Core/DeviceStandardReq.o
                                                  ../../LUFA/Drivers/USB/Core/AVR8/USBInterrupt_AVR8.o
                                                  ../../LUFA/Drivers/USB/Core/AVR8/USBController_AVR8.o
USB_Device_CurrentlySelfPowered                   ../../LUFA/Drivers/USB/Core/DeviceStandardReq.o
                                                  ../../LUFA/Drivers/USB/Core/AVR8/USBController_AVR8.o
USB_Device_ProcessControlRequest                  ../../LUFA/Drivers/USB/Core/DeviceStandardReq.o
                                                  ../../LUFA/Drivers/USB/Core/USBTask.o
                                                  ../../LUFA/Drivers/USB/Core/AVR8/USBInterrupt_AVR8.o
USB_Device_RemoteWakeupEnabled                    ../../LUFA/Drivers/USB/Core/DeviceStandardReq.o
                                                  ../../LUFA/Drivers/USB/Core/AVR8/USBController_AVR8.o
USB_Device_SendRemoteWakeup                       ../../LUFA/Drivers/USB/Core/AVR8/Device_AVR8.o
USB_Disable                                       ../../LUFA/Drivers/USB/Core/AVR8/USBController_AVR8.o
USB_Event_Stub                                    ../../LUFA/Drivers/USB/Core/Events.o
USB_GetHIDReportItemInfo                          ../../LUFA/Drivers/USB/Class/Common/HIDParser.o
USB_GetHIDReportSize                              ../../LUFA/Drivers/USB/Class/Common/HIDParser.o
USB_GetNextDescriptorComp                         ../../LUFA/Drivers/USB/Core/ConfigDescriptors.o
USB_GetNextDescriptorOfType                       ../../LUFA/Drivers/USB/Core/ConfigDescriptors.o
USB_GetNextDescriptorOfTypeAfter                  ../../LUFA/Drivers/USB/Core/ConfigDescriptors.o
USB_GetNextDescriptorOfTypeBefore                 ../../LUFA/Drivers/USB/Core/ConfigDescriptors.o
USB_INT_ClearAllInterrupts                        ../../LUFA/Drivers/USB/Core/AVR8/USBInterrupt_AVR8.o
                                                  ../../LUFA/Drivers/USB/Core/AVR8/USBController_AVR8.o
USB_INT_DisableAllInterrupts                      ../../LUFA/Drivers/USB/Core/AVR8/USBInterrupt_AVR8.o
                                                  ../../LUFA/Drivers/USB/Core/AVR8/USBController_AVR8.o
USB_Init                                          ../../LUFA/Drivers/USB/Core/AVR8/USBController_AVR8.o
                                                  MangaScreen.o
USB_IsInitialized                                 ../../LUFA/Drivers/USB/Core/USBTask.o
                                                  ../../LUFA/Drivers/USB/Core/AVR8/USBController_AVR8.o
USB_ProcessHIDReport                              ../../LUFA/Drivers/USB/Class/Common/HIDParser.o
USB_ResetInterface                                ../../LUFA/Drivers/USB/Core/AVR8/USBController_AVR8.o
USB_SetHIDReportItemInfo                          ../../LUFA/Drivers/USB/Class/Common/HIDParser.o
USB_USBTask                                       ../../LUFA/Drivers/USB/Core/USBTask.o
                                                  ../../LUFA/Drivers/USB/Class/Device/CDCClassDevice.o
                                                  MangaScreen.o
VirtualSerial_CDC_Interface                       MangaScreen.o
__bad_interrupt                                   /usr/lib/gcc/avr/4.8.2/../../../avr/lib/avr5/crtm32u4.o
__brkval                                          /usr/lib/gcc/avr/4.8.2/../../../avr/lib/avr5/libc.a(malloc.o)
__bss_end                                         /usr/lib/gcc/avr/4.8.2/avr5/libgcc.a(_clear_bss.o)
__bss_start                                       /usr/lib/gcc/avr/4.8.2/avr5/libgcc.a(_clear_bss.o)
__data_end                                        /usr/lib/gcc/avr/4.8.2/avr5/libgcc.a(_copy_data.o)
__data_load_start                                 /usr/lib/gcc/avr/4.8.2/avr5/libgcc.a(_copy_data.o)
__data_start                                      /usr/lib/gcc/avr/4.8.2/avr5/libgcc.a(_copy_data.o)
__divmodhi4                                       /usr/lib/gcc/avr/4.8.2/avr5/libgcc.a(_divmodhi4.o)
                                                  Digitizer.o
__do_clear_bss                                    /usr/lib/gcc/avr/4.8.2/avr5/libgcc.a(_clear_bss.o)
                                                  /usr/lib/gcc/avr/4.8.2/../../../avr/lib/avr5/libc.a(iob.o)
                                                  /usr/lib/gcc/avr/4.8.2/../../../avr/lib/avr5/libc.a(malloc.o)
                                                  ../../LUFA/Drivers/USB/Core/USBTask.o
                                                  ../../LUFA/Drivers/USB/Core/DeviceStandardReq.o
                                                  Digitizer.o
                                                  MangaScreen.o
__do_copy_data                                    /usr/lib/gcc/avr/4.8.2/avr5/libgcc.a(_copy_data.o)
                                                  /usr/lib/gcc/avr/4.8.2/../../../avr/lib/avr5/libc.a(malloc.o)
                                                  ../../LUFA/Drivers/USB/Class/Device/RNDISClassDevice.o
                                                  ../../LUFA/Drivers/USB/Class/Device/CDCClassDevice.o
                                                  Digitizer.o
                                                  LCD.o
                                                  MangaScreen.o
__eerd_byte_m32u4                                 /usr/lib/gcc/avr/4.8.2/../../../avr/lib/avr5/libc.a(eerd_byte_atmega32u4.o)
                                                  ../../LUFA/Drivers/USB/Core/AVR8/EndpointStream_AVR8.o
__eeupd_byte_m32u4                                /usr/lib/gcc/avr/4.8.2/../../../avr/lib/avr5/libc.a(eeupd_byte_atmega32u4.o)
                                                  ../../LUFA/Drivers/USB/Core/AVR8/EndpointStream_AVR8.o
__eeupd_r18_m32u4                                 /usr/lib/gcc/avr/4.8.2/../../../avr/lib/avr5/libc.a(eeupd_byte_atmega32u4.o)
__epilogue_restores__                             /usr/lib/gcc/avr/4.8.2/avr5/libgcc.a(_epilogue.o)
                                                  /usr/lib/gcc/avr/4.8.2/../../../avr/lib/avr5/libc.a(vfprintf_std.o)
                                                  /usr/lib/gcc/avr/4.8.2/../../../avr/lib/avr5/libc.a(sprintf.o)
                                                  /usr/lib/gcc/avr/4.8.2/../../../avr/lib/avr5/libc.a(printf.o)
__flp                                             /usr/lib/gcc/avr/4.8.2/../../../avr/lib/avr5/libc.a(malloc.o)
__heap_end                                        /usr/lib/gcc/avr/4.8.2/../../../avr/lib/avr5/crtm32u4.o
                                                  /usr/lib/gcc/avr/4.8.2/../../../avr/lib/avr5/libc.a(malloc.o)
__heap_start                                      /usr/lib/gcc/avr/4.8.2/../../../avr/lib/avr5/libc.a(malloc.o)
__init                                            /usr/lib/gcc/avr/4.8.2/../../../avr/lib/avr5/crtm32u4.o
__iob                                             /usr/lib/gcc/avr/4.8.2/../../../avr/lib/avr5/libc.a(puts.o)
                                                  /usr/lib/gcc/avr/4.8.2/../../../avr/lib/avr5/libc.a(putchar.o)
                                                  /usr/lib/gcc/avr/4.8.2/../../../avr/lib/avr5/libc.a(printf.o)
                                                  /usr/lib/gcc/avr/4.8.2/../../../avr/lib/avr5/libc.a(iob.o)
                                                  MangaScreen.o
__malloc_heap_end                                 /usr/lib/gcc/avr/4.8.2/../../../avr/lib/avr5/libc.a(malloc.o)
__malloc_heap_start                               /usr/lib/gcc/avr/4.8.2/../../../avr/lib/avr5/libc.a(malloc.o)
__malloc_margin                                   /usr/lib/gcc/avr/4.8.2/../../../avr/lib/avr5/libc.a(malloc.o)
__mulhi_const_10                                  /usr/lib/gcc/avr/4.8.2/../../../avr/lib/avr5/libc.a(mul10.o)
                                                  /usr/lib/gcc/avr/4.8.2/../../../avr/lib/avr5/libc.a(atoi.o)
__prologue_saves__                                /usr/lib/gcc/avr/4.8.2/avr5/libgcc.a(_prologue.o)
                                                  /usr/lib/gcc/avr/4.8.2/../../../avr/lib/avr5/libc.a(vfprintf_std.o)
                                                  /usr/lib/gcc/avr/4.8.2/../../../avr/lib/avr5/libc.a(sprintf.o)
                                                  /usr/lib/gcc/avr/4.8.2/../../../avr/lib/avr5/libc.a(printf.o)
__stack                                           /usr/lib/gcc/avr/4.8.2/../../../avr/lib/avr5/crtm32u4.o
__tablejump2__                                    /usr/lib/gcc/avr/4.8.2/avr5/libgcc.a(_tablejump.o)
                                                  ../../LUFA/Drivers/USB/Core/DeviceStandardReq.o
__tablejump__                                     /usr/lib/gcc/avr/4.8.2/avr5/libgcc.a(_tablejump.o)
__udivmodhi4                                      /usr/lib/gcc/avr/4.8.2/avr5/libgcc.a(_udivmodhi4.o)
                                                  /usr/lib/gcc/avr/4.8.2/avr5/libgcc.a(_divmodhi4.o)
__ultoa_invert                                    /usr/lib/gcc/avr/4.8.2/../../../avr/lib/avr5/libc.a(ultoa_invert.o)
                                                  /usr/lib/gcc/avr/4.8.2/../../../avr/lib/avr5/libc.a(vfprintf_std.o)
__vector_1                                        /usr/lib/gcc/avr/4.8.2/../../../avr/lib/avr5/crtm32u4.o
__vector_10                                       ../../LUFA/Drivers/USB/Core/AVR8/USBInterrupt_AVR8.o
                                                  /usr/lib/gcc/avr/4.8.2/../../../avr/lib/avr5/crtm32u4.o
__vector_11                                       ../../LUFA/Drivers/USB/Core/AVR8/USBInterrupt_AVR8.o
                                                  /usr/lib/gcc/avr/4.8.2/../../../avr/lib/avr5/crtm32u4.o
__vector_12                                       /usr/lib/gcc/avr/4.8.2/../../../avr/lib/avr5/crtm32u4.o
__vector_13                                       /usr/lib/gcc/avr/4.8.2/../../../avr/lib/avr5/crtm32u4.o
__vector_14                                       /usr/lib/gcc/avr/4.8.2/../../../avr/lib/avr5/crtm32u4.o
__vector_15                                       /usr/lib/gcc/avr/4.8.2/../../../avr/lib/avr5/crtm32u4.o
__vector_16                                       /usr/lib/gcc/avr/4.8.2/../../../avr/lib/avr5/crtm32u4.o
__vector_17                                       /usr/lib/gcc/avr/4.8.2/../../../avr/lib/avr5/crtm32u4.o
__vector_18                                       /usr/lib/gcc/avr/4.8.2/../../../avr/lib/avr5/crtm32u4.o
__vector_19                                       /usr/lib/gcc/avr/4.8.2/../../../avr/lib/avr5/crtm32u4.o
__vector_2                                        /usr/lib/gcc/avr/4.8.2/../../../avr/lib/avr5/crtm32u4.o
__vector_20                                       /usr/lib/gcc/avr/4.8.2/../../../avr/lib/avr5/crtm32u4.o
__vector_21                                       /usr/lib/gcc/avr/4.8.2/../../../avr/lib/avr5/crtm32u4.o
__vector_22                                       /usr/lib/gcc/avr/4.8.2/../../../avr/lib/avr5/crtm32u4.o
__vector_23                                       /usr/lib/gcc/avr/4.8.2/../../../avr/lib/avr5/crtm32u4.o
__vector_24                                       /usr/lib/gcc/avr/4.8.2/../../../avr/lib/avr5/crtm32u4.o
__vector_25                                       /usr/lib/gcc/avr/4.8.2/../../../avr/lib/avr5/crtm32u4.o
__vector_26                                       /usr/lib/gcc/avr/4.8.2/../../../avr/lib/avr5/crtm32u4.o
__vector_27                                       /usr/lib/gcc/avr/4.8.2/../../../avr/lib/avr5/crtm32u4.o
__vector_28                                       /usr/lib/gcc/avr/4.8.2/../../../avr/lib/avr5/crtm32u4.o
__vector_29                                       /usr/lib/gcc/avr/4.8.2/../../../avr/lib/avr5/crtm32u4.o
__vector_3                                        Digitizer.o
                                                  /usr/lib/gcc/avr/4.8.2/../../../avr/lib/avr5/crtm32u4.o
__vector_30                                       /usr/lib/gcc/avr/4.8.2/../../../avr/lib/avr5/crtm32u4.o
__vector_31                                       /usr/lib/gcc/avr/4.8.2/../../../avr/lib/avr5/crtm32u4.o
__vector_32                                       /usr/lib/gcc/avr/4.8.2/../../../avr/lib/avr5/crtm32u4.o
__vector_33                                       /usr/lib/gcc/avr/4.8.2/../../../avr/lib/avr5/crtm32u4.o
__vector_34                                       /usr/lib/gcc/avr/4.8.2/../../../avr/lib/avr5/crtm32u4.o
__vector_35                                       /usr/lib/gcc/avr/4.8.2/../../../avr/lib/avr5/crtm32u4.o
__vector_36                                       /usr/lib/gcc/avr/4.8.2/../../../avr/lib/avr5/crtm32u4.o
__vector_37                                       /usr/lib/gcc/avr/4.8.2/../../../avr/lib/avr5/crtm32u4.o
__vector_38                                       /usr/lib/gcc/avr/4.8.2/../../../avr/lib/avr5/crtm32u4.o
__vector_39                                       /usr/lib/gcc/avr/4.8.2/../../../avr/lib/avr5/crtm32u4.o
__vector_4                                        /usr/lib/gcc/avr/4.8.2/../../../avr/lib/avr5/crtm32u4.o
__vector_40                                       /usr/lib/gcc/avr/4.8.2/../../../avr/lib/avr5/crtm32u4.o
__vector_41                                       /usr/lib/gcc/avr/4.8.2/../../../avr/lib/avr5/crtm32u4.o
__vector_42                                       /usr/lib/gcc/avr/4.8.2/../../../avr/lib/avr5/crtm32u4.o
__vector_5                                        /usr/lib/gcc/avr/4.8.2/../../../avr/lib/avr5/crtm32u4.o
__vector_6                                        /usr/lib/gcc/avr/4.8.2/../../../avr/lib/avr5/crtm32u4.o
__vector_7                                        /usr/lib/gcc/avr/4.8.2/../../../avr/lib/avr5/crtm32u4.o
__vector_8                                        /usr/lib/gcc/avr/4.8.2/../../../avr/lib/avr5/crtm32u4.o
__vector_9                                        /usr/lib/gcc/avr/4.8.2/../../../avr/lib/avr5/crtm32u4.o
__vector_default                                  /usr/lib/gcc/avr/4.8.2/../../../avr/lib/avr5/crtm32u4.o
__vectors                                         /usr/lib/gcc/avr/4.8.2/../../../avr/lib/avr5/crtm32u4.o
_div                                              /usr/lib/gcc/avr/4.8.2/avr5/libgcc.a(_divmodhi4.o)
_exit                                             /usr/lib/gcc/avr/4.8.2/avr5/libgcc.a(_exit.o)
atoi                                              /usr/lib/gcc/avr/4.8.2/../../../avr/lib/avr5/libc.a(atoi.o)
                                                  MangaScreen.o
cmd                                               MangaScreen.o
cmd_cnt                                           MangaScreen.o
digitizer_get_report                              Digitizer.o
                                                  MangaScreen.o
digitizer_init                                    Digitizer.o
                                                  MangaScreen.o
edt_ft5x06_get_data                               Digitizer.o
edt_ft5x06_print_parameters                       Digitizer.o
edt_ft5x06_register_read                          Digitizer.o
edt_ft5x06_register_write                         Digitizer.o
edt_ft5x06_ts_get_parameters                      Digitizer.o
edt_ft5x06_ts_identify                            Digitizer.o
edt_ft5x06_ts_readwrite                           Digitizer.o
edt_ft5x06_ts_set_parameters                      Digitizer.o
enable_reports                                    MangaScreen.o
execute_command                                   MangaScreen.o
exit                                              /usr/lib/gcc/avr/4.8.2/avr5/libgcc.a(_exit.o)
                                                  /usr/lib/gcc/avr/4.8.2/../../../avr/lib/avr5/crtm32u4.o
fputc                                             /usr/lib/gcc/avr/4.8.2/../../../avr/lib/avr5/libc.a(fputc.o)
                                                  /usr/lib/gcc/avr/4.8.2/../../../avr/lib/avr5/libc.a(vfprintf_std.o)
                                                  /usr/lib/gcc/avr/4.8.2/../../../avr/lib/avr5/libc.a(putchar.o)
free                                              /usr/lib/gcc/avr/4.8.2/../../../avr/lib/avr5/libc.a(malloc.o)
i2c_recv                                          i2c.o
i2c_recv2                                         i2c.o
i2c_send                                          i2c.o
i2c_send2                                         i2c.o
i2c_transfer                                      i2c.o
                                                  Digitizer.o
main                                              MangaScreen.o
                                                  /usr/lib/gcc/avr/4.8.2/../../../avr/lib/avr5/crtm32u4.o
malloc                                            /usr/lib/gcc/avr/4.8.2/../../../avr/lib/avr5/libc.a(malloc.o)
                                                  Digitizer.o
memcmp                                            /usr/lib/gcc/avr/4.8.2/../../../avr/lib/avr5/libc.a(memcmp.o)
                                                  ../../LUFA/Drivers/USB/Class/Device/HIDClassDevice.o
memcpy                                            /usr/lib/gcc/avr/4.8.2/../../../avr/lib/avr5/libc.a(memcpy.o)
                                                  ../../LUFA/Drivers/USB/Class/Device/RNDISClassDevice.o
                                                  ../../LUFA/Drivers/USB/Class/Device/HIDClassDevice.o
memcpy_P                                          /usr/lib/gcc/avr/4.8.2/../../../avr/lib/avr5/libc.a(memcpy_P.o)
                                                  ../../LUFA/Drivers/USB/Class/Device/RNDISClassDevice.o
memset                                            /usr/lib/gcc/avr/4.8.2/../../../avr/lib/avr5/libc.a(memset.o)
                                                  ../../LUFA/Drivers/USB/Class/Device/HIDClassDevice.o
printf                                            /usr/lib/gcc/avr/4.8.2/../../../avr/lib/avr5/libc.a(printf.o)
                                                  MangaScreen.o
putchar                                           /usr/lib/gcc/avr/4.8.2/../../../avr/lib/avr5/libc.a(putchar.o)
                                                  MangaScreen.o
putchar_printf                                    MangaScreen.o
puts                                              /usr/lib/gcc/avr/4.8.2/../../../avr/lib/avr5/libc.a(puts.o)
                                                  MangaScreen.o
setup_irq                                         Digitizer.o
sprintf                                           /usr/lib/gcc/avr/4.8.2/../../../avr/lib/avr5/libc.a(sprintf.o)
                                                  Digitizer.o
strcmp                                            /usr/lib/gcc/avr/4.8.2/../../../avr/lib/avr5/libc.a(strcmp.o)
                                                  MangaScreen.o
strcpy                                            /usr/lib/gcc/avr/4.8.2/../../../avr/lib/avr5/libc.a(strcpy.o)
                                                  Digitizer.o
strncmp                                           /usr/lib/gcc/avr/4.8.2/../../../avr/lib/avr5/libc.a(strncmp.o)
                                                  MangaScreen.o
strnlen                                           /usr/lib/gcc/avr/4.8.2/../../../avr/lib/avr5/libc.a(strnlen.o)
                                                  /usr/lib/gcc/avr/4.8.2/../../../avr/lib/avr5/libc.a(vfprintf_std.o)
strnlen_P                                         /usr/lib/gcc/avr/4.8.2/../../../avr/lib/avr5/libc.a(strnlen_P.o)
                                                  /usr/lib/gcc/avr/4.8.2/../../../avr/lib/avr5/libc.a(vfprintf_std.o)
to_hex                                            LCD.o
tp                                                Digitizer.o
tsdata                                            Digitizer.o
vfprintf                                          /usr/lib/gcc/avr/4.8.2/../../../avr/lib/avr5/libc.a(vfprintf_std.o)
                                                  /usr/lib/gcc/avr/4.8.2/../../../avr/lib/avr5/libc.a(sprintf.o)
                                                  /usr/lib/gcc/avr/4.8.2/../../../avr/lib/avr5/libc.a(printf.o)
